:020000040800F2
:100000000080002069370008991F00089F1F000822
:10001000A51F0008AB1F0008B11F0008000000006A
:10002000000000000000000000000000B71F0008F2
:10003000C51F000800000000D31F0008E11F0008D2
:10004000B9370008B9370008B9370008B9370008D0
:10005000B9370008B9370008B9370008B9370008C0
:10006000B9370008B9370008B9370008B9370008B0
:10007000B9370008B9370008B9370008B9370008A0
:10008000B9370008B9370008B9370008B937000890
:10009000B9370008B9370008B9370008ED1F000864
:1000A000B9370008B9370008B9370008B937000870
:1000B000B9370008B9370008B9370008B937000860
:1000C000B9370008B9370008B9370008B937000850
:1000D000B9370008B9370008B9370008B937000840
:1000E00065200008B9370008B93700080000000093
:1000F0000000000000000000000000000000000000
:10010000000000000000000000000000B9370008F7
:10011000B9370008B93700087D200008000000004A
:10012000B9370008B9370008B9370008B9370008EF
:10013000B9370008000000000000000000000000C7
:10014000B9370008B93700080000000000000000BF
:10015000000000000000000000000000000000009F
:100160000000000000000000B9370008B93700089F
:10017000B937000800000000000000000000000087
:0801800000000000B93700087F
:1001900010B5054C237833B9044B13B10448AFF3C1
:1001A00000800123237010BD240200200000000005
:1001B00050D6000808B5034B1BB103490348AFF301
:1001C000008008BD000000002802002050D6000872
:1001D00001F0FF01102A2BDB10F0070F08D010F8F8
:1001E000013B013A8B422DD010F0070F42B3F6D1FC
:1001F000F0B441EA012141EA014122F007047FF015
:1002000000070023F0E80256083C85EA010586EA6B
:10021000010685FA47F5A3FA87F586FA47F6A5FAA7
:1002200087F68EB9EED1F0BC01F0FF0102F00702B3
:1002300032B110F8013B013A83EA010313B1F8D15E
:100240000020704701387047002D06BF354603383F
:10025000073815F0010F07D1013015F4807F02BF78
:10026000013015F4C03F0130F0BC0138704700BFC9
:10027000034613F8012B002AFBD1181A01387047E6
:1002800081F0004102E000BF83F0004330B54FEA47
:1002900041044FEA430594EA050F08BF90EA020FB4
:1002A0001FBF54EA000C55EA020C7FEA645C7FEA47
:1002B000655C00F0E2804FEA5454D4EB5555B8BF6A
:1002C0006D420CDD2C4480EA020281EA030382EADB
:1002D000000083EA010180EA020281EA0303362D6D
:1002E00088BF30BD11F0004F4FEA01314FF4801C40
:1002F0004CEA113102D0404261EB410113F0004F52
:100300004FEA03334CEA133302D0524263EB430308
:1003100094EA050F00F0A780A4F10104D5F1200EA6
:100320000DDB02FA0EFC22FA05F2801841F1000101
:1003300003FA0EF2801843FA05F359410EE0A5F1D5
:1003400020050EF1200E012A03FA0EFC28BF4CF006
:10035000020C43FA05F3C01851EBE37101F00045BC
:1003600007D54FF0000EDCF1000C7EEB00006EEBC9
:100370000101B1F5801F1BD3B1F5001F0CD3490853
:100380005FEA30004FEA3C0C04F101044FEA4452AA
:1003900012F5800F80F09A80BCF1004F08BF5FEA31
:1003A000500C50F1000041EB045141EA050130BD11
:1003B0005FEA4C0C404141EB0101013C28BFB1F523
:1003C000801FE9D291F0000F04BF01460020B1FA6E
:1003D00081F308BF2033A3F10B03B3F120020CDA41
:1003E0000C3208DD02F1140CC2F10C0201FA0CF01F
:1003F00021FA02F10CE002F11402D8BFC2F1200C84
:1004000001FA02F120FA0CFCDCBF41EA0C01904039
:10041000E41AA2BF01EB0451294330BD6FEA040482
:100420001F3C1CDA0C340EDC04F11404C4F120026D
:1004300020FA04F001FA02F340EA030021FA04F37F
:1004400045EA030130BDC4F10C04C4F1200220FAD6
:1004500002F001FA04F340EA0300294630BD21FA14
:1004600004F0294630BD94F0000F83F4801306BFDA
:1004700081F480110134013D4EE77FEA645C18BFCE
:100480007FEA655C29D094EA050F08BF90EA020F65
:1004900005D054EA000C04BF1946104630BD91EA5D
:1004A000030F1EBF0021002030BD5FEA545C05D160
:1004B0004000494128BF41F0004130BD14F580049F
:1004C0003CBF01F5801130BD01F0004545F0FE4113
:1004D00041F470014FF0000030BD7FEA645C1ABF48
:1004E000194610467FEA655C1CBF0B46024650EA7F
:1004F000013406BF52EA033591EA030F41F40021AB
:1005000030BD00BF90F0000F04BF0021704730B530
:100510004FF4806404F132044FF000054FF0000105
:1005200050E700BF90F0000F04BF0021704730B5C6
:100530004FF4806404F1320410F0004548BF40429B
:100540004FF000013EE700BF42004FEAE2014FEAF0
:1005500031014FEA02701FBF12F07F4393F07F4FCB
:1005600081F06051704732F07F4208BF704793F0CE
:100570007F4F04BF41F40021704730B54FF46074E1
:1005800001F0004521F000411CE700BF50EA0102E4
:1005900008BF704730B54FF000050AE050EA01028D
:1005A00008BF704730B511F0004502D5404261EBFD
:1005B00041014FF4806404F132045FEA915C3FF43E
:1005C000D8AE4FF003025FEADC0C18BF03325FEADB
:1005D000DC0C18BF033202EBDC02C2F1200300FA8C
:1005E00003FC20FA02F001FA03FE40EA0E0021FAB1
:1005F00002F11444BDE600BF70B54FF0FF0C4CF49F
:10060000E06C1CEA11541DBF1CEA135594EA0C0F50
:1006100095EA0C0F00F0DEF82C4481EA030621EA8B
:100620004C5123EA4C5350EA013518BF52EA0335C6
:1006300041F4801143F4801338D0A0FB02CE4FF078
:100640000005E1FB02E506F00042E0FB03E54FF0A8
:100650000006E1FB03569CF0000F18BF4EF0010EA0
:10066000A4F1FF04B6F5007F64F5407404D25FEA9C
:100670004E0E6D4146EB060642EAC62141EA55514F
:100680004FEAC52040EA5E504FEACE2EB4F1FD0C91
:1006900088BFBCF5E06F1ED8BEF1004F08BF5FEA0F
:1006A000500E50F1000041EB045170BD06F00046C1
:1006B00046EA010140EA020081EA0301B4EB5C046E
:1006C000C2BFD4EB0C0541EA045170BD41F4801166
:1006D0004FF0000E013C00F3AB8014F1360FDEBF8B
:1006E000002001F0004170BDC4F10004203C35DA67
:1006F0000C341BDC04F11404C4F1200500FA05F3EA
:1007000020FA04F001FA05F240EA020001F000428A
:1007100021F0004110EBD37021FA04F642EB060100
:100720005EEA430E08BF20EAD37070BDC4F10C042A
:10073000C4F1200500FA04F320FA05F001FA04F2EE
:1007400040EA020001F0004110EBD37041F10001DA
:100750005EEA430E08BF20EAD37070BDC4F12005E5
:1007600000FA05F24EEA020E20FA04F301FA05F24D
:1007700043EA020321FA04F001F0004121FA04F2F5
:1007800020EA020000EBD3705EEA430E08BF20EAC5
:10079000D37070BD94F0000F0FD101F000464000FF
:1007A00041EB010111F4801F08BF013CF7D041EA81
:1007B000060195F0000F18BF704703F00046520085
:1007C00043EB030313F4801F08BF013DF7D043EA56
:1007D0000603704794EA0C0F0CEA135518BF95EA0C
:1007E0000C0F0CD050EA410618BF52EA4306D1D193
:1007F00081EA030101F000414FF0000070BD50EAB2
:10080000410606BF1046194652EA430619D094EA3B
:100810000C0F02D150EA013613D195EA0C0F05D125
:1008200052EA03361CBF104619460AD181EA030179
:1008300001F0004141F0FE4141F470014FF0000031
:1008400070BD41F0FE4141F4780170BD70B54FF0CC
:10085000FF0C4CF4E06C1CEA11541DBF1CEA13554C
:1008600094EA0C0F95EA0C0F00F0A7F8A4EB05042E
:1008700081EA030E52EA03354FEA013100F0888025
:100880004FEA03334FF0805545EA131343EA1263EE
:100890004FEA022245EA111545EA10654FEA0026A3
:1008A0000EF000419D4208BF964244F1FD0404F55C
:1008B000407402D25B084FEA3202B61A65EB0305B8
:1008C0005B084FEA32024FF480104FF4002CB6EB75
:1008D000020E75EB030E22BFB61A754640EA0C00F5
:1008E0005B084FEA3202B6EB020E75EB030E22BF35
:1008F000B61A754640EA5C005B084FEA3202B6EB76
:10090000020E75EB030E22BFB61A754640EA9C0034
:100910005B084FEA3202B6EB020E75EB030E22BF04
:10092000B61A754640EADC0055EA060E18D04FEAC2
:10093000051545EA16754FEA06164FEAC30343EA62
:1009400052734FEAC2025FEA1C1CC0D111F4801F2F
:100950000BD141EA00014FF000004FF0004CB6E728
:1009600011F4801F04BF01430020B4F1FD0C88BFC7
:10097000BCF5E06F3FF6AFAEB5EB030C04BFB6EBD2
:10098000020C5FEA500C50F1000041EB045170BDC5
:100990000EF0004E4EEA113114EB5C04C2BFD4EBF2
:1009A0000C0541EA045170BD41F480114FF0000E76
:1009B000013C90E645EA060E8DE60CEA135594EAF2
:1009C0000C0F08BF95EA0C0F3FF43BAF94EA0C0FF5
:1009D0000AD150EA01347FF434AF95EA0C0F7FF46A
:1009E00025AF104619462CE795EA0C0F06D152EABE
:1009F00003353FF4FDAE1046194622E750EA4106A2
:100A000018BF52EA43067FF4C5AE50EA41047FF4B2
:100A10000DAF52EA43057FF4EBAE12E74FF0FF3C17
:100A200006E000BF4FF0010C02E000BF4FF0010CE8
:100A30004DF804CD4FEA410C7FEA6C5C4FEA430C61
:100A400018BF7FEA6C5C1BD001B050EA410C0CBFB0
:100A500052EA430C91EA030F02BF90EA020F002012
:100A6000704710F1000F91EA030F58BF994208BF79
:100A700090422CBFD8176FEAE37040F00100704736
:100A80004FEA410C7FEA6C5C02D150EA013C07D18D
:100A90004FEA430C7FEA6C5CD6D152EA033CD3D0D8
:100AA0005DF8040B704700BF8446104662468C46D2
:100AB0001946634600E000BF01B5FFF7B7FF002805
:100AC00048BF10F1000F01BD4DF808EDFFF7F4FF2E
:100AD0000CBF012000205DF808FB00BF4DF808EDB9
:100AE000FFF7EAFF34BF012000205DF808FB00BFDC
:100AF0004DF808EDFFF7E0FF94BF012000205DF8FE
:100B000008FB00BF4DF808EDFFF7CEFF94BF0120B2
:100B100000205DF808FB00BF4DF808EDFFF7C4FFAB
:100B200034BF012000205DF808FB00BF4FEA410CF4
:100B30007FEA6C5C02D150EA013C0AD14FEA430CD7
:100B40007FEA6C5C02D152EA033C02D14FF0000014
:100B500070474FF0010070474FEA410212F5001252
:100B600015D211D56FF47873B3EB625212D94FEAF4
:100B7000C12343F0004343EA505311F0004F23FADE
:100B800002F018BF404270474FF00000704750EA33
:100B9000013005D111F0004008BF6FF000407047F0
:100BA0004FF00000704700BF4A0011D212F500124A
:100BB00011D20DD56FF47873B3EB62520ED44FEAB5
:100BC000C12343F0004343EA505323FA02F0704735
:100BD0004FF00000704750EA013002D14FF0FF3073
:100BE00070474FF0000070474FEA4102B2F1E04316
:100BF00024BFB3F5001CDCF1FE5C0DD901F0004C04
:100C00004FEAC0024CEA5070B2F1004F40EB830053
:100C100008BF20F00100704711F0804F21D113F17F
:100C20003872BCBF01F00040704741F480114FEAB8
:100C30005252C2F11802C2F1200C10FA0CF320FA41
:100C400002F018BF40F001004FEAC1234FEAD3235E
:100C500003FA0CFC40EA0C0023FA02F34FEA4303C8
:100C6000CCE77FEA625307D150EA01331EBF4FF051
:100C7000FE4040F44000704701F0004040F0FE406C
:100C800040F40000704700BF38B50022002304463E
:100C90000D46FFF723FF28B920462946BDE8384016
:100CA00000F00AB8204605F1004100F005F8404286
:100CB00061EB410138BD00BFD0B50C4B00220646A8
:100CC0000F46FFF799FCFFF76FFF0446FFF71AFC8A
:100CD000074B0022FFF790FC02460B463046394690
:100CE000FFF7D2FAFFF760FF2146D0BD0000F03DCC
:100CF0000000F04180B483B000AF03463960FB8050
:100D0000FB88DAB23B681A70FB881B0A9AB23B6810
:100D10000133D2B21A7000BF0C37BD465DF8047BB8
:100D2000704780B485B000AF78607B6801331B7872
:100D30001B029BB27A6812781343FB60FB689BB27C
:100D400018461437BD465DF8047B704780B500AF88
:100D500020214FF0904004F061FD0346184680BD0D
:100D600080B500AF40214FF0904004F057FD03469E
:100D7000184680BD80B500AF80214FF0904004F050
:100D80004DFD0346184680BD80B500AF4FF40041CD
:100D90004FF0904004F042FD0346184680BD00002D
:100DA00080B500AF4FF48041024804F037FD0346A0
:100DB000184680BD0008004880B500AF4FF40041E0
:100DC000024804F02BFD0346184680BD0008004889
:100DD00080B582B000AF0346FB71FB791A464FF431
:100DE0000051034804F032FD00BF0837BD4680BD06
:100DF0000008004880B582B000AF0346FB71FB7964
:100E00001A460121034804F021FD00BF0837BD4602
:100E100080BD00BF0004004880B582B000AF03462B
:100E2000FB71FB791A460221034804F00FFD00BF55
:100E30000837BD4680BD00BF0004004880B582B0C1
:100E400000AF0346FB71FB791A460421034804F006
:100E5000FDFC00BF0837BD4680BD00BF0004004850
:100E600080B582B000AF0346FB71FB791A464FF4A0
:100E70008061034804F0EAFC00BF0837BD4680BD2E
:100E80000004004880B582B000AF0346FB71FB79D7
:100E90001A464FF40061034804F0D8FC00BF08373D
:100EA000BD4680BD0004004880B582B000AF034657
:100EB000FB71FB791A464FF48051034804F0C6FCDD
:100EC00000BF0837BD4680BD0004004880B582B031
:100ED00000AF0346FB71FB791A464FF480614FF077
:100EE000904004F0B3FC00BF0837BD4680BD000051
:100EF00080B500AF4FF40051024804F0BFFC00BFC2
:100F000080BD00BF0008004880B582B000AF034636
:100F1000FB71FB791A464FF48041034804F096FCBC
:100F200000BF0837BD4680BD0008004880B582B0CC
:100F300000AF0346FB71FB791A464FF400410348AA
:100F400004F084FC00BF0837BD4680BD000800489F
:100F500080B582B000AF0346FB71FB79002B02D154
:100F60000020FFF7D1FFFB79012B0AD1FFF724FF07
:100F70000346012B02D10020FFF7D8FF0120FFF725
:100F8000C3FF00BF0837BD4680BD80B582B000AF4B
:100F90000346FB71FB79002B02D10020FFF7C6FF4F
:100FA000FB79012B0AD1FFF7FBFE0346012B02D18F
:100FB0000020FFF7A9FF0120FFF7B8FF00BF0837A7
:100FC000BD4680BD0000000080B586B000AF7860EF
:100FD0000B46FB70FB78012B1DD1514B0E225A6042
:100FE000504B01225A604E494F4803F03DF80346EA
:100FF000FB75FB7D002B02D04FF0FF3386E04949A3
:10100000494803F031F80346FB75FB7D002B26D0E1
:101010004FF0FF337AE0FB78022B1DD1404B0122C9
:101020005A60404B0E225A603E493F4803F01CF87C
:101030000346FB75FB7D002B02D04FF0FF3365E0CC
:101040003749394803F010F80346FB75FB7D002B48
:1010500005D04FF0FF3359E06FF0050356E0002153
:10106000314802F08EFF0346FB75FB7D002B02D05A
:101070006FF004034AE02C4802F0BCFD0346FB7508
:10108000FB7D002B02D06FF001033FE04FF0FF31FA
:10109000254802F09BFE0346FB75FB7D002B05D027
:1010A000214802F05DFE6FF003032FE01E4802F0BE
:1010B00057FE0346FB75FB7D002B02D06FF0020349
:1010C00024E0194802F050FF0346C3F30B033B61D1
:1010D0003B6907EE903AF8EE677A9FED147AC7EE17
:1010E000876A16EE900AFFF72FFA0BA3D3E90023C5
:1010F000FFF782FA02460B4610461946FFF774FDC9
:101100000346FB607B68FA681A60002318461837AC
:10111000BD4680BDAFF300806666666666660A40BF
:1011200000000020180000204002002000F07F4551
:1011300080B582B000AF03463960FB711346BB80B7
:10114000FB79012B05D1BA8864233968034807F07D
:1011500015FA00BF0837BD4680BD00BF540400200B
:1011600080B500AF1C4B1B78032B1DD801A252F891
:1011700023F000BFD3110008851100089111000869
:101180009D11000801F088FD134B00221A7021E028
:1011900001F08EFE104B00221A701BE001F0FCFEE5
:1011A0000D4B00221A7015E0802200210B4808F038
:1011B00016FE0B4A7F21094808F07AFD094B1B787F
:1011C000802206491846FFF7B3FF034B00221A702E
:1011D00000E000BF00BF80BDAA050020E804002099
:1011E00068D600084B00002080B586B002AF02F040
:1011F000E5FA00F011FA00F043FC00F0D7FA00F035
:101200000BFB00F049FB00F085FB00F0BBFB00F09E
:10121000DFFB00F005FC00F059FA4FF47A7002F0A1
:1012200033FB01F073FC802200216A4808F0D7FDEF
:10123000694B6A4A7F21674808F03AFD684B1B7882
:10124000802264491846FFF773FF8022002161481D
:1012500008F0C5FD634B644A7F215E4808F028FD15
:101260005F4B1B7880225B491846FFF761FF01F056
:101270009BFE0346002B11D080220021554808F028
:10128000AEFD5A4A7F21534808F012FD544B1B789B
:10129000802250491846FFF74BFF13E0544B0022C1
:1012A0001A70802200214B4808F099FD514A7F2195
:1012B000484808F0FDFC4A4B1B78802245491846F7
:1012C000FFF736FF01F076FC4B4B1B89184601F007
:1012D000A3FA0023BB60494B1B681B68BB608022DC
:1012E00000213C4808F07BFDBB68454A7F21394816
:1012F00008F0DEFC3A4B1B78802236491846FFF78F
:1013000017FF3B4B1B78002B10D080220021314867
:1013100008F065FD3B4A7F212E4808F0C9FC304BA0
:101320001B7880222B491846FFF702FF0023FB732E
:101330003EE1354B1B78002B04D0334B00221A7052
:10134000FFF7D6FD00212D4803F08DFF0346002B4B
:101350007CD0012000F078FF082200212B4808F003
:101360003EFD2A4B2A4A0021244803F05AFE034638
:101370001A46284B1A70274B1B78002B52D1234B4F
:101380001A78254B1A7080220021124808F027FD98
:101390001F4B1B68214A7F210E4808F089FC104B27
:1013A0001B7880220B491846FFF7C2FE80220021DD
:1013B000084808F014FD184B1B78194A7F2105488E
:1013C00008F076FC064B1B78802202491846FFF78E
:1013D000AFFE3BE0E804002030000020ACD600085F
:1013E0004B00002038000020C4D60008D8D60008E2
:1013F0004C00002000D70008DC04002090020020F0
:1014000038D7000854D70008A9050020A0050020FF
:1014100084050020A8050020AA05002074D7000834
:10142000A4D70008802200216F4808F0D8FC6F4A3A
:101430007F216D4808F03CFC6D4B1B7880226A4987
:101440001846FFF775FE6B4B00221A70FFF788FEF7
:10145000694B1B78002B46D0674B00221A70802204
:101460000021614808F0BBFC644A7F215E4808F017
:101470001FFC5F4B1B7880225B491846FFF758FE24
:1014800080220021584808F0AAFCFFF77DFC0346A3
:101490005B4A7F21544808F00BFC554B1B78802297
:1014A00051491846FFF744FE3B1D01211846FFF73E
:1014B0008BFD802200214C4808F091FC7B68184687
:1014C000FFF742F802460B46CDE9002301234D4ABF
:1014D0007F21454808F0ECFB454B1B7880224249B0
:1014E0001846FFF725FE444B5B78002B32D0424B69
:1014F00000225A70802200213B4808F070FC424ACA
:101500007F21394808F0D4FB394B1B7880223649BB
:101510001846FFF70DFE3B4602211846FFF754FD23
:1015200080220021304808F05AFC3B681846FFF73B
:101530000BF802460B46CDE900230223314A7F21F6
:10154000294808F0B5FB2A4B1B788022264918460B
:10155000FFF7EEFD284B9B78002B29D0264B00226D
:101560009A7080220021204808F039FC274A7F2108
:101570001D4808F09DFB1E4B1B7880221A49184617
:10158000FFF7D6FDFFF7B4FCFB7B002B08D1012051
:10159000FFF7DEFC0020FFF7F8FC0123FB7307E0F8
:1015A0000020FFF7D5FC0120FFF7EFFC0023FB73C1
:1015B000174B1B78002B7FF4BCAE802200210A4819
:1015C00008F00DFC134A7F21074808F071FB084B17
:1015D0001B78802204491846FFF7AAFD002318460D
:1015E0001037BD4680BD00BFE8040020BCD700080E
:1015F0004B000020AA050020DC040020ECD70008E6
:1016000000D8000818D8000830D8000844D80008CE
:101610004C00002058D8000880B59CB000AF07F1FE
:10162000480328220021184608F0D9FB07F13403AB
:1016300000221A605A609A60DA601A613B463422CE
:101640000021184608F0CBFB0223BB640123BB65D5
:101650001023FB6502237B660023BB664FF4002347
:10166000FB6607F14803184604F0E8FE0346002B2A
:1016700001D000F0CFFA0F237B630223BB6300236A
:10168000FB6300233B6400237B6407F134030021E8
:10169000184605F011FF0346002B01D000F0BAFAFE
:1016A000A2233B600023FB604FF480737B62002326
:1016B000FB613B46184606F035F90346002B01D086
:1016C00000F0A8FA00BF7037BD4680BD80B58AB073
:1016D00000AF07F11C0300221A605A609A603B1D9C
:1016E00000221A605A609A60DA601A615A612E4BC1
:1016F0004FF0A0421A602C4B00225A602A4B002265
:101700009A60294B00221A61274B00225A76264BF9
:10171000002283F82020244B0022DA62224B01228F
:101720009A62214B0022DA601F4B0122DA611E4BC4
:10173000002283F830201C4B04225A611A4B0022ED
:101740001A76194B00225A63174802F0C1F8034673
:10175000002B01D000F05EFA0023FB6107F11C03AF
:101760001946114802F03EFF0346002B01D000F05D
:1017700051FA01237B600123BB6000233B610023FE
:10178000FB6000237B610023BB613B1D19460648BB
:1017900002F06AFC0346002B01D000F03BFA00BFC8
:1017A0002837BD4680BD00BF4002002080B500AF95
:1017B000174B184A1A60164B04225A60144B002229
:1017C0009A60134B0022DA60114B4FF440221A61E9
:1017D0000F4B4FF480125A610D4B00221A760C4BBE
:1017E00000225A760A4B00229A76094B0122DA76B9
:1017F000074B00221A77064B00225A77044803F061
:1018000037F90346002B01D000F004FA00BF80BD79
:10181000900200200064004080B500AF1B4B1C4AC2
:101820001A601A4B1B4A5A60184B00229A60174BD9
:101830000122DA60154B00221A61144B00225A6112
:10184000124B00229A61114B0022DA610F4B0022E9
:101850001A620E4804F04FF80346002B01D000F046
:10186000D9F90021094804F051FD0346002B01D0AD
:1018700000F0D0F90021054804F093FD0346002B49
:1018800001D000F0C7F900BF80BD00BFB802002042
:10189000005400400E09002080B500AF1B4B1C4ACD
:1018A0001A601A4B4FF482725A60184B00229A60E9
:1018B000164B4FF4E062DA60144B02221A61134BAC
:1018C00001225A61114B4FF400729A610F4B1022A2
:1018D000DA610E4B00221A620C4B00225A620B4B4B
:1018E00000229A62094B0722DA62084B00221A632F
:1018F000064B00225A63054806F0A6F90346002B62
:1019000001D000F087F900BF80BD00BF0C030020AC
:101910000038004080B584B000AF3B1D00221A6043
:101920005A609A60154B164A1A60144B43F67F6250
:101930005A60124B00229A60104B40F2F312DA60A8
:101940000E4B00229A610D4806F029FA0346002B3F
:1019500001D000F05FF900237B600023FB603B1D9A
:101960001946064806F02AFD0346002B01D000F078
:1019700051F900BF1037BD4680BD00BF7003002085
:101980000010004080B500AF0F4B104A1A600E4B9C
:101990000F225A600C4B00229A600B4B4FF6FF72DD
:1019A000DA60094B00221A61074B00225A61064B8C
:1019B00000229A61044806F0F2F90346002B01D098
:1019C00000F028F900BF80BDBC03002000440140A6
:1019D00080B500AF104B114A1A600F4B43F67F627F
:1019E0005A600D4B00229A600B4B4FF6FF72DA6083
:1019F000094B00221A61084B00225A61064B002253
:101A00009A61054806F0CBF90346002B01D000F09F
:101A100001F900BF80BD00BF08040020004801405C
:101A200080B500AF144B154A1A60134B4FF41642A1
:101A30005A60114B00229A600F4B0022DA600E4B65
:101A400000221A610C4B0C225A610B4B00229A6146
:101A5000094B0022DA61084B00221A62064B002271
:101A60005A62054806F03CFD0346002B01D000F009
:101A7000D1F800BF80BD00BF5404002000440040E6
:101A800080B588B000AF07F10C0300221A605A60DD
:101A90009A60DA601A615C4B5B695B4A43F400232D
:101AA0005361594B5B6903F40023BB60BB68564B21
:101AB0005B69554A43F400335361534B5B6903F44C
:101AC00000337B607B68504B5B694F4A43F4802353
:101AD00053614D4B5B6903F480233B603B680022FC
:101AE0004FF46041494803F0B1FE002240F607413F
:101AF000474803F0ABFE01224FF48051444803F005
:101B0000A5FE01224FF480614FF0904003F09EFE4D
:101B10004FF40053FB6001233B6100237B610023F2
:101B2000BB6107F10C031946384803F0FDFC4FF484
:101B30004043FB6001233B6102237B610023BB61C7
:101B400007F10C031946314803F0EEFCE023FB607B
:101B50004FF488133B6100237B6107F10C031946A6
:101B60004FF0904003F0E0FC41F60743FB60012397
:101B70003B6100237B610023BB6107F10C03194625
:101B8000234803F0D1FC4FF48063FB6001233B61E9
:101B900000237B610023BB6107F10C0319464FF062
:101BA000904003F0C1FC4FF4C053FB604FF444136A
:101BB0003B6100237B6107F10C0319464FF0904015
:101BC00003F0B2FC4FF40043FB6000233B610023B1
:101BD0007B6107F10C0319464FF0904003F0A4FC21
:101BE00000220021172003F068FC172003F081FC7D
:101BF00000220021282003F060FC282003F079FC5B
:101C000000BF2037BD4680BD0010024000080048DC
:101C10000004004880B400AF72B600BFFEE70000C9
:101C200080B483B000AF0F4B9B690E4A43F00103B1
:101C300093610C4B9B6903F001037B607B68094B4C
:101C4000DB69084A43F08053D361064BDB6903F03C
:101C500080533B603B6800BF0C37BD465DF8047B9A
:101C6000704700BF0010024080B58AB000AF7860B6
:101C700007F1140300221A605A609A60DA601A6150
:101C80007B681B68B3F1A04F24D1144B5B69134AE6
:101C900043F080535361114B5B6903F080533B6108
:101CA0003B690E4B5B690D4A43F4003353610B4BA8
:101CB0005B6903F40033FB60FB6803237B61032350
:101CC000BB610023FB6107F1140319464FF09040FC
:101CD00003F02AFC00BF2837BD4680BD001002403B
:101CE00080B58AB000AF786007F1140300221A6053
:101CF0005A609A60DA601A617B681B68174A9342DF
:101D000028D1174BDB69164A43F00073D361144B9B
:101D1000DB6903F000733B613B69114B5B69104A5F
:101D200043F4802353610E4B5B6903F48023FB6013
:101D3000FB684FF440737B610223BB610023FB61AE
:101D400003233B6209237B6207F11403194605480C
:101D500003F0EAFB00BF2837BD4680BD00640040A9
:101D6000001002400004004880B58AB000AF7860DF
:101D700007F1140300221A605A609A60DA601A614F
:101D80007B681B68174A934227D1174B5B69164A39
:101D900043F480235361144B5B6903F480233B615C
:101DA0003B69C0237B611223BB610023FB610323DA
:101DB0003B6204237B6207F1140319460B4803F0CE
:101DC000B3FB094BDB69084A43F40013D361064BAC
:101DD000DB6903F40013FB60FB6800BF2837BD46D6
:101DE00080BD00BF005400400010024000040048C5
:101DF00080B58AB000AF786007F1140300221A6042
:101E00005A609A60DA601A617B681B68174A9342CD
:101E100028D1174BDB69164A43F48043D361144B36
:101E2000DB6903F480433B613B69114B5B69104AFA
:101E300043F4802353610E4B5B6903F48023FB6002
:101E4000FB684FF460437B610223BB610023FB61AD
:101E500003233B6205237B6207F1140319460548FF
:101E600003F062FB00BF2837BD4680BD003800404C
:101E7000001002400004004880B586B000AF7860D2
:101E80007B681B681F4A934214D11F4BDB691E4AB3
:101E900043F01003D3611C4BDB6903F010037B613B
:101EA0007B6900220021362003F007FB362003F077
:101EB00020FB22E07B681B68144A93420CD1124B32
:101EC0009B69114A43F4003393610F4B9B6903F400
:101ED00000333B613B6910E07B681B680C4A93420E
:101EE0000BD1094B9B69084A43F480239361064B4D
:101EF0009B6903F48023FB60FB6800BF1837BD4675
:101F000080BD00BF001000400010024000440140AE
:101F10000048014080B58AB000AF786007F1140333
:101F200000221A605A609A60DA601A617B681B6846
:101F3000174A934228D1174BDB69164A43F4003302
:101F4000D361144BDB6903F400333B613B69114BF4
:101F50005B69104A43F4003353610E4B5B6903F431
:101F60000033FB60FB680C237B610223BB61002311
:101F7000FB6103233B6207237B6207F114031946CD
:101F80004FF0904003F0D0FA00BF2837BD4680BD27
:101F9000004400400010024080B400AFFEE780B46F
:101FA00000AFFEE780B400AFFEE780B400AFFEE70D
:101FB00080B400AFFEE780B400AF00BFBD465DF85F
:101FC000047B704780B400AF00BFBD465DF8047B62
:101FD000704780B400AF00BFBD465DF8047B70471A
:101FE00080B500AF01F030FC00BF80BD80B582B08D
:101FF00000AF00237B6002E07B6801337B607B687D
:1020000047F22F529342F7DDFEF7A0FE0346002B66
:1020100014BF01230023DAB2114B1A70FEF7A0FEA1
:102020000346002B14BF01230023DAB20C4B5A7075
:10203000FEF7A0FE0346002B14BF01230023DAB2F3
:10204000074B9A70202003F033FC402003F030FC53
:10205000802003F02DFC00BF0837BD4680BD00BFC7
:10206000DC04002080B500AF4FF4006003F020FCDA
:102070004FF4805003F01CFC00BF80BD80B500AF62
:10208000034B01221A70034805F0C4FF00BF80BD56
:10209000A90500207003002080B400AF012318467A
:1020A000BD465DF8047B704780B582B000AF7860B4
:1020B000396007F0E7FE034616221A604FF0FF333F
:1020C00018460837BD4680BD80B582B000AF786045
:1020D0004FF0FF317868FFF7E7FFFEE780B586B085
:1020E00000AFF860B9607A6000237B610AE0AFF36B
:1020F00000800146BB685A1CBA60CAB21A707B697C
:1021000001337B617A697B689A42F0DB7B68184611
:102110001837BD4680BD80B586B000AFF860B960A5
:102120007A6000237B6109E0BB685A1CBA601B78A7
:102130001846AFF300807B6901337B617A697B6865
:102140009A42F1DB7B6818461837BD4680BD80B4E3
:1021500083B000AF78604FF0FF3318460C37BD46B0
:102160005DF8047B704780B483B000AF786039605D
:102170003B684FF400525A60002318460C37BD46A6
:102180005DF8047B704780B483B000AF78600123B2
:1021900018460C37BD465DF8047B704780B485B0A7
:1021A00000AFF860B9607A60002318461437BD4666
:1021B0005DF8047B7047000080B586B000AF7860A2
:1021C000144A154BD31A7B617B693B61134B1B6827
:1021D000002B02D1114B124A1A60104B1A687B680F
:1021E00013443A699A4207D207F04CFE03460C2288
:1021F0001A604FF0FF3309E0084B1B68FB60074B88
:102200001A687B681344054A1360FB681846183740
:10221000BD4680BD0080002000040000AC05002009
:102220005807002080B400AF064BD3F88830054A29
:1022300043F47003C2F8883000BFBD465DF8047BEC
:10224000704700BF00ED00E080B58CB000AF786053
:102250007B68002B12D07B68012B18D10EE007F1B0
:10226000080307F1100279680B4802F0DAFE034612
:1022700087F82F3097F82F30002B07D17968064860
:1022800002F0F1FF0346002BE9D100E000BF00BFE0
:102290003037BD4680BD00BF9002002080B588B0B9
:1022A00002AF0346B9607A60FB81FB891B0A9BB2CF
:1022B0001BB203F007031AB250231BB213431BB225
:1022C000FB82FB89DBB23B75FB8A5B0099B207F1AD
:1022D0001402642300930123164803F09BFB03467A
:1022E0001A46154B1A70144B1B78002B02D06FF056
:1022F00001031AE0FB8A5B001BB243F001031BB22F
:1023000099B27B689BB264220092BA68094803F0D4
:1023100075FC03461A46084B1A70074B1B78002BB6
:1023200002D04FF0FF3300E0002318461837BD46B7
:1023300080BD00BFB8020020B005002080B582B08B
:1023400000AF1023FB71FB1D184600F05FF8034639
:10235000002B02D06FF0010311E0BB1D184600F006
:1023600038F80346002B02D04FF0FF3307E0BA796C
:10237000FB799A4202D06FF0030300E00023184675
:102380000837BD4680BD80B584B000AF0346FB7101
:10239000FB1D184600F03AF80346002B02D06FF000
:1023A000010312E007F10F03184600F012F803468C
:1023B000002B02D04FF0FF3307E0FA7BFB799A4203
:1023C00002D06FF0030300E0002318461037BD462B
:1023D00080BD80B584B000AF78600023FB6007F15A
:1023E0000C030421184600F03DF80346002B02D0F0
:1023F0004FF0FF3306E0FB7B03F07F03DAB27B682C
:102400001A70002318461037BD4680BD80B584B0D1
:1024100002AF78607B68002B02D16FF0020319E0F5
:102420006B239BB25B0099B23223009301237A683D
:102430000A4803F0EFFA03461A46094B1A70084B94
:102440001B78002B02D06FF0010303E0642001F041
:102450001BFA002318460837BD4680BDB80200208D
:10246000B105002080B584B002AF78600B467B8058
:102470007B68002B02D07B88002B02D16FF0020317
:1024800019E06B235B001BB243F001031BB299B24E
:102490007B88322200927A68094803F0AFFB03463A
:1024A0001A46084B1A70074B1B78002B02D04FF0CE
:1024B000FF3300E0002318460837BD4680BD00BF4B
:1024C000B8020020B105002080B586B000AF87EDCE
:1024D000010AD7ED017AF5EEC07AF1EE10FA0AD4CE
:1024E0007868FEF731F81BA3D3E90023FEF714FB4D
:1024F0000346002B02D06FF0020325E0144B7B61F2
:102500004FF480537B8201233B827B8A07EE903A13
:10251000B8EEE77AD7ED017A67EE276A3B8A07EED5
:10252000903AB8EEE77AD7ED057A27EE277AC6EE2D
:10253000877AFCEEE77A17EE903AFB81FB89194621
:10254000002000F0D3F8034618461837BD4680BD7A
:102550006F120340FCA9F1D24D62004090B589B0E2
:1025600002AF0446084611461A462346FB7103464D
:10257000BB710B467B7113463B71FB79002B05D079
:10258000FB79012B02D06FF0020389E0BB79002BAD
:1025900008D0BB79022B05D0BB79032B02D06FF09A
:1025A00002037DE07B79002B0BD07B79012B08D0D7
:1025B0007B79022B05D07B79032B02D06FF00203CD
:1025C0006EE03B79002B05D03B79012B02D06FF0F8
:1025D000020365E03B8DB3F5805F02D36FF0020329
:1025E0005EE000231B021AB261235B001BB213439F
:1025F0001BB2BB82FB79002B02D16023FB7501E08B
:102600004023FB753B8DC3F30B033B853B8D1B0ABE
:102610009BB2DBB23B743B8DDBB27B74BB79DB00DE
:102620005BB203F018035AB297F9173013435AB24A
:102630007B795B005BB203F006035BB213435AB2D3
:1026400097F9043003F001035BB213435BB2DBB2D2
:102650003B733B7C1B015AB27B7C1B09DBB25BB238
:1026600013435BB2DBB27B737B7C1B01DBB2BB73BE
:1026700007F10C02B98A6423009303230A4803F08C
:10268000C9F903461A46094B1A70084B1B78002BF0
:1026900002D06FF0010303E0322001F0F5F80023CF
:1026A00018461C37BD4690BDB8020020B205002078
:1026B00090B585B002AF0446084611461A46234637
:1026C000FB710346BB710B467B7113467B807879A7
:1026D000BA79F9797B88009303460020FFF73EFF23
:1026E000034618460C37BD4690BD000080B586B045
:1026F00002AF03460A46FB711346BB80FB79002BF1
:102700000BD0FB79012B08D0FB79022B05D0FB798C
:10271000032B02D06FF0020344E0BB88B3F5805F67
:1027200002D36FF002033DE000231B021AB26123C3
:102730005B001BB213431BB2FB81BB88C3F30B03CB
:10274000BB80BB881B0A9BB2DBB23B73BB88DBB28E
:102750007B73FB791B015BB203F030035AB23B7B06
:102760005BB203F00F035BB213435BB2DBB23B72AD
:102770007B7B7B7207F10802F989642300930223B3
:102780000A4803F047F903461A46094B1A70084BEA
:102790001B78002B02D06FF0010303E0322001F020
:1027A00073F8002318461037BD4680BDB8020020DC
:1027B000B205002080B586B002AF78607B68002B40
:1027C00002D16FF002031FE000231B021AB2612343
:1027D0005B001BB213431BB2FB81FB8943F0010377
:1027E00099B26423009306237A68094803F006FA35
:1027F00003461A46074B1A70064B1B78002B02D073
:102800004FF0FF3300E0002318461037BD4680BD6F
:10281000B8020020B205002080B582B000AF0346A8
:10282000FB80A84B4FF480621A60A64B08221A6105
:10283000A44B00229A60A34B0022DA60A24B002234
:102840005A61A14B01229A619F4B0022DA61FB88F9
:102850005B011A4643F6E07313409B4A13609A4BA0
:1028600000225A60984B00229A60974B0022DA604F
:10287000954B00221A61944B01221A62934B01225C
:102880005A61924B01229A61904B0022DA61FB88D7
:102890005A0143F6E073134043F480431A468B4BCE
:1028A0001A608A4B4FF480425A60884B4FF4804242
:1028B0009A60864B4FF48042DA60844B01221A61A1
:1028C000824B01221A6280220021814807F087FA98
:1028D000804A7F217E4807F0EBF97F4B1B788022EE
:1028E0007B491846FEF724FC77497C4802F0BBF987
:1028F00003461A467A4B1A70794B1B78002B11D07D
:1029000080220021724807F06AFA764A7F217048D7
:1029100007F0CEF9704B1B7880226D491846FEF700
:1029200007FC10E080220021694807F058FA6E4A3F
:102930007F21674807F0BCF9674B1B788022644908
:102940001846FEF7F5FB6149644802F08CF903462E
:102950001A46634B1A70624B1B78002B11D08022F1
:1029600000215B4807F03BFA604A7F21584807F096
:102970009FF9594B1B78802255491846FEF7D8FB22
:1029800010E080220021524807F029FA584A7F219E
:102990004F4807F08DF9504B1B7880224C49184660
:1029A000FEF7C6FB02214D4802F085FC03461A469D
:1029B0004B4B1A704A4B1B78002B11D08022002100
:1029C000434807F00CFA4B4A7F21414807F070F961
:1029D000414B1B7880223E491846FEF7A9FB10E0C8
:1029E000802200213A4807F0FAF9434A7F2138480B
:1029F00007F05EF9384B1B78802235491846FEF700
:102A000097FB1021354802F056FC03461A46344B1A
:102A10001A70334B1B78002B11D0802200212C48D8
:102A200007F0DDF9354A7F21294807F041F92A4BA3
:102A30001B78802226491846FEF77AFB10E0802298
:102A40000021234807F0CBF92D4A7F21204807F0C9
:102A50002FF9214B1B7880221D491846FEF768FB91
:102A60001E4802F0CAF903461A461D4B1A701C4B49
:102A70001B78002B11D080220021154807F0AFF9F8
:102A8000204A7F21124807F013F9134B1B7880224C
:102A90000F491846FEF74CFB10E0802200210C483D
:102AA00007F09DF9184A7F21094807F001F90A4B00
:102AB0001B78802206491846FEF73AFB00BF08370C
:102AC000BD4680BD6C050020B4050020DC0500205B
:102AD000E804002080D800084B000020900200206D
:102AE000A8050020A4D80008DCD80008F8D8000801
:102AF00024D9000840D9000878D90008A8D90008CE
:102B0000E0D9000810DA000838DA000880B500AF14
:102B100080220021214807F062F9214A7F211F48C5
:102B200007F0C6F81F4B1B7880221C491846FEF799
:102B3000FFFA80220021194807F051F91A4A7F2133
:102B4000164807F0B5F8174B1B7880221349184632
:102B5000FEF7EEFA80220021104807F040F9134AF0
:102B60007F210E4807F0A4F80E4B1B7880220B49FA
:102B70001846FEF7DDFA80220021084807F02FF9F9
:102B80000B4A7F21054807F093F8064B1B788022FB
:102B900002491846FEF7CCFA00BF80BDE8040020C9
:102BA00054DA00084B000020A0DA0008E8DA000838
:102BB00030DB000880B500AF802200212E4807F0EE
:102BC0000EF92E4A7F212C4807F072F82C4B1B7807
:102BD000802229491846FEF7ABFA802200212648B8
:102BE00007F0FDF8274B9B88274A7F21224807F0F2
:102BF0005FF8234B1B7880221F491846FEF798FA8E
:102C0000802200211C4807F0EAF81E4B1B891F4A4E
:102C10007F21194807F04CF8194B1B788022164980
:102C20001846FEF785FA80220021134807F0D7F8EE
:102C3000144B9B79164A7F210F4807F039F8104B47
:102C40001B7880220C491846FEF772FA8022002178
:102C5000094807F0C4F80B4B5B890E4A7F210648F0
:102C600007F026F8064B1B78802203491846FEF72A
:102C70005FFA00BF80BD00BFE804002078DB0008D9
:102C80004B000020DC0400209CDB0008BCDB0008BB
:102C9000D8DB0008F0DB000880B584B000AF8022EC
:102CA0000021744807F09BF8734A7F21714806F0B1
:102CB000FFFF724B1B7880226E491846FEF738FAE8
:102CC0000123FB730023BB7300237B600023BB60E5
:102CD000A0233B716A4B1A893B1D013319461046EC
:102CE000FEF708F8664B9A883B1D033319461046D9
:102CF000FEF700F8624B9B797B72614B1B8943F4B2
:102D0000C0639BB21A465F4B1A603A1D5E4B5D4929
:102D10005E4802F0B6F803461A465D4B1A705C4BEB
:102D20001B78002B13D00023FB7380220021514815
:102D300007F055F8574A7F214E4806F0B9FF4F4B30
:102D40001B7880224B491846FEF7F2F910E08022EA
:102D50000021484807F043F84F4A7F21454806F0D4
:102D6000A7FF464B1B78802242491846FEF7E0F940
:102D70003B1D08220021184607F031F8474B1B681D
:102D800000225A62454805F061F822E001213F48DF
:102D900002F069FA0346002B10D03B1D404A012186
:102DA0003A4802F03EF903461A46394B1A70384B3E
:102DB0001B78002B17D00023FB7314E0374B1B68E4
:102DC0005B6A41F28832934203D90123BB7300232B
:102DD000FB73FB7B002B07D0BB7B83F00103DBB2D3
:102DE000002BD3D100E000BF2C4805F089F88022E9
:102DF0000021204806F0F3FF284B1B685B6A294A34
:102E00007F211C4806F054FF1C4B1B788022194977
:102E10001846FEF78DF9214B1B6800225A62FB7B96
:102E2000002B11D080220021124806F0D8FF1E4A44
:102E30007F21104806F03CFF104B1B7880220D4983
:102E40001846FEF775F910E080220021094806F0C7
:102E5000C6FF164A7F21074806F02AFF074B1B785A
:102E6000802204491846FEF763F900BF1037BD46BB
:102E700080BD00BFE804002010DC00084B000020EB
:102E8000DC0400206C050020680500209002002072
:102E9000A805002034DC000864DC000808040020D9
:102EA000840500207CDC0008ACDC0008D8DC0008CD
:102EB00080B584B000AF802200212C4806F08FFF3F
:102EC0002B4A7F21294806F0F3FE2A4B1B788022EB
:102ED00026491846FEF72CF90123FB73264A3B1DB1
:102EE00092E8030083E80300244B1B8943F4C0638A
:102EF0009BB21A46224B1A603A1D224B20492248A7
:102F000001F0BFFF03461A46204B1A701F4B1B7877
:102F1000002B01D00023FB73FB7B002B11D0802200
:102F20000021124806F05BFF194A7F210F4806F086
:102F3000BFFE104B1B7880220C491846FEF7F8F8AC
:102F400010E080220021094806F049FF114A7F2144
:102F5000064806F0ADFE074B1B7880220349184651
:102F6000FEF7E6F800BF1037BD4680BDE80400203C
:102F700000DD00084B00002070DD0008DC040020AC
:102F80006C0500206805002090020020A8050020A4
:102F900020DD000848DD000880B400AF00BFBD465A
:102FA0005DF8047B7047000080B586B000AF012358
:102FB000FB7580220021A64806F011FFA54A7F215B
:102FC000A34806F075FEA44B1B788022A049184642
:102FD000FEF7AEF8A14804F0BBFF03461A46A04B2B
:102FE0001A709F4B1B78002B11D18022002198482A
:102FF00006F0F5FE9B4A7F21954806F059FE964B58
:103000001B78802292491846FEF792F812E080223F
:1030100000218F4806F0E3FE934A7F218C4806F09A
:1030200047FE8D4B1B78802289491846FEF780F8B1
:103030000023FB750020FDF7CBFE0020FDF7DAFE34
:103040000020FDF7E9FE0020FDF7F8FE0020FDF767
:1030500007FF0020FDF716FF0020FDF779FF002095
:10306000FDF793FF0120FDF71FFF0120FDF72EFF65
:1030700080220021764806F0B2FE7C4A7F21744807
:1030800006F016FE744B1B78802271491846FEF735
:103090004FF8802200216E4806F0A1FE744A7F217D
:1030A0006B4806F005FE6C4B1B7880226849184679
:1030B000FEF73EF8FFF742F90346002B11D18022BC
:1030C0000021634806F08BFE6A4A7F21604806F0C3
:1030D000EFFD614B1B7880225D491846FEF728F80A
:1030E00012E0802200215A4806F079FE624A7F21D0
:1030F000574806F0DDFD584B1B788022544918468E
:10310000FEF716F80023FB7508237B757B7D1846B8
:10311000FFF739F90346002B11D1802200214C48DA
:1031200006F05DFE554A7F21494806F0C1FD4A4B35
:103130001B78802246491846FDF7FAFF12E08022EC
:103140000021434806F04BFE4D4A7F21404806F0DF
:10315000AFFD414B1B7880223D491846FDF7E8FF43
:103160000023FB7580220021394806F038FE454ACD
:103170007F21374806F09CFD374B1B78802234496D
:103180001846FDF7D5FF0023BB75FF23FB60002326
:103190003B8207F10C031846FFF70CFB0346002B9C
:1031A0007AD1FB7B03F0DE03DC2B11D180220021DE
:1031B000274806F014FE344A7F21254806F078FDA2
:1031C000254B1B78802222491846FDF7B1FF13E0FA
:1031D000802200211E4806F002FEFB7B2B4A7F2145
:1031E0001B4806F065FD1C4B1B78802218491846C9
:1031F000FDF79EFF0123BB753B7B03F0DE03D82B5D
:1032000011D180220021124806F0E9FD204A7F21D9
:103210000F4806F04DFD104B1B7880220C491846D4
:10322000FDF786FF4BE080220021094806F0D7FD1C
:103230003B7B184A7F21064806F03AFD064B1B7877
:10324000802203491846FDF773FF0123BB7536E062
:10325000E804002078DD00084B0000207003002007
:10326000A8050020A4DD0008C4DD0008ECDD00088E
:1032700008DE000828DE000840DE000858DE0008EE
:1032800070DE000888DE0008ACDE0008C8DE00083A
:10329000F0DE000818DF0008802200219A4806F0BE
:1032A0009EFD9A4A7F21984806F002FD984B1B78B4
:1032B000802295491846FDF73BFF0023FB75BB7D37
:1032C000002B1BD00023002202210320FFF7F0F97E
:1032D0000346002B12D0802200218B4806F07FFD90
:1032E0008C4A7F21884806F0E3FC894B1B788022BA
:1032F00085491846FDF71CFF0023FB75BB7D002B9D
:1033000078D007F10C030822FF21184606F067FD6C
:1033100007F10C031846FFF74DFA0346002B56D170
:10332000FB7B03F0DE03DC2B11D1802200217648E9
:1033300006F055FD784A7F21734806F0B9FC744BBE
:103340001B78802270491846FDF7F2FE13E08022B8
:1033500000216D4806F043FDFB7B704A7F216A48DF
:1033600006F0A6FC6A4B1B78802267491846FDF7D9
:10337000DFFE0023FB753B7B03F0DE03D82B11D16E
:1033800080220021604806F02AFD654A7F215E48C0
:1033900006F08EFC5E4B1B7880225B491846FDF7D9
:1033A000C7FE27E080220021574806F018FD3B7B2E
:1033B0005C4A7F21544806F07BFC554B1B788022E9
:1033C00051491846FDF7B4FE0023FB7512E0802238
:1033D00000214D4806F003FD534A7F214A4806F07C
:1033E00067FC4B4B1B78802247491846FDF7A0FE2F
:1033F0000023FB753B7B5BB2002B11DA802200219E
:10340000414806F0ECFC494A7F213F4806F050FC59
:103410003F4B1B7880223C491846FDF789FE12E09D
:1034200080220021384806F0DAFC414A7F213648E4
:1034300006F03EFC364B1B78802233491846FDF7D8
:1034400077FE0023FB759FED3B0AFFF73DF803462F
:10345000002B11D1802200212B4806F0C0FC364AF7
:103460007F21294806F024FC294B1B78802226491D
:103470001846FDF75DFE12E080220021224806F08A
:10348000AEFC2E4A7F21204806F012FC204B1B7810
:1034900080221D491846FDF74BFE0023FB75802254
:1034A0000021194806F09BFC254A7F21164806F0AA
:1034B000FFFB174B1B78802213491846FDF738FE97
:1034C00000237B6007F1080300210A461A800A46A0
:1034D0009A703B1D072219460020FEF7DFFE0346C7
:1034E000002B31D180220021074806F078FC154AD4
:1034F0007F21054806F0DCFB054B1B788022024942
:103500001846FDF715FE32E0E804002048DF000809
:103510004B0000207CDF0008A0DF0008C8DF0008A7
:10352000F8DF000828E0000860E00008A0E00008DC
:10353000C4E0000800000000E4E0000810E100081A
:1035400038E1000868E10008802200217C4806F08C
:1035500046FC7C4A7F217A4806F0AAFB7A4B1B780E
:10356000802277491846FDF7E3FD0023FB75774B72
:1035700000221A70754B00225A70744B00229A7008
:103580003B1D1846FDF7CDFB03461A466F4B9A804C
:10359000BA796E4B9A713B1D03331846FDF7C1FB98
:1035A00003461A46694B1A813B1D05331846FDF741
:1035B000B8FB03461A46654B5A81644B9B884FF60D
:1035C000FF7293420FD0614B9B79FF2B0BD05F4B67
:1035D0001B894FF6FF72934205D05C4B5B894FF617
:1035E000FF7293425FD180220021554806F0F7FB1D
:1035F000574A7F21524806F05BFB534B1B788022D1
:103600004F491846FDF794FD802200214C4806F0F2
:10361000E6FB4E4B9B884F4A7F21494806F048FB0A
:10362000494B1B78802246491846FDF781FD8022D0
:103630000021434806F0D3FB444B1B89464A7F21B7
:103640003F4806F035FB404B1B7880223C4918462A
:10365000FDF76EFD80220021394806F0C0FB3B4B90
:103660009B793E4A7F21364806F022FB364B1B7879
:10367000802233491846FDF75BFD80220021304847
:1036800006F0ADFB314B5B89354A7F212C4806F0B3
:103690000FFB2D4B1B78802229491846FDF748FD6A
:1036A0000023FB7510E080220021254806F097FBDF
:1036B0002C4A7F21224806F0FBFA234B1B788022FC
:1036C0001F491846FDF734FD204B9B790F2B0CD971
:1036D0000120FDF7D7FB0120FDF7C2FB0120FDF71C
:1036E000ADFB0120FDF798FB25E0184B9B79DB082B
:1036F000DBB203F00103DBB21846FDF7C3FB134B4B
:103700009B799B08DBB203F00103DBB21846FDF79F
:10371000A7FB0E4B9B795B08DBB203F00103DBB226
:103720001846FDF78BFB094B9B7903F00103DBB2D5
:103730001846FDF771FBFB7D18461837BD4680BD66
:10374000E80400209CE100084B000020DC0400207D
:10375000D0E100080CE2000828E2000844E200087A
:103760005CE2000878E20008DFF834D0FEF75AFD8A
:103770000C480D490D4A002302E0D458C4500433CC
:10378000C4188C42F9D30A4A0A4C002301E01360A2
:103790000432A242FBD306F07BFBFDF725FDFEE7DA
:1037A00000800020000000202402002000E7000824
:1037B0002402002054070020FEE7000080B500AF7F
:1037C000084B1B68074A43F010031360032001F005
:1037D00069FE0F2000F008F8FEF722FA00231846D1
:1037E00080BD00BF0020024080B582B000AF78608D
:1037F000124B1A68124B1B7819464FF47A73B3FBBD
:10380000F1F3B2FBF3F3184601F081FE0346002BFF
:1038100001D001230EE07B680F2B0AD800227968C3
:103820004FF0FF3001F049FE064A7B681360002329
:1038300000E0012318460837BD4680BD5000002037
:10384000580000205400002080B400AF064B1B78C5
:103850001A46064B1B681344044A136000BFBD465A
:103860005DF8047B704700BF58000020040600206C
:1038700080B400AF034B1B681846BD465DF8047B5F
:10388000704700BF0406002080B584B000AF7860A8
:10389000FFF7EEFFB8607B68FB60FB68B3F1FF3FAA
:1038A00005D00A4B1B781A46FB681344FB6000BF27
:1038B000FFF7DEFF0246BB68D31AFA689A42F7D8D0
:1038C00000BF00BF1037BD4680BD00BF58000020BC
:1038D00080B59AB000AF7860002387F86730002386
:1038E0003B660023BB607B68002B01D1012372E1A2
:1038F0007B681B69002B7B681B6C03F01003002B9B
:1039000076D17B681B6C002B52D17B6800225A64F5
:103910007B680022DA647B6800229A647B6800225C
:1039200083F83C207868FEF79FF97B681B689B68EA
:1039300003F08053002B3BD1786800F07DFF0346F5
:1039400087F867307B681B6C03F01003002B2FD1C6
:1039500097F86730002B2BD17B681B6C23F48853BE
:1039600023F0020343F002027B681A647B681B6841
:103970009A687B681B6822F040529A607B681B68DB
:103980009A687B681B6842F080529A60944B1B686F
:10399000944AA2FB03239A0C13469B0013445B003A
:1039A000BB6002E0BB68013BBB60BB68002BF9D188
:1039B0007B681B689B6803F08053002B07D07B68F3
:1039C0001B689B6803F00053B3F1005F10D17B6864
:1039D0001B6C23F0120343F010027B681A647B68AF
:1039E0005B6C43F001027B685A64012387F86730FF
:1039F0007B681B6C03F01003002B40F0DF8097F80E
:103A00006730002B40F0DA807B681B689B6803F00E
:103A10000403002B40F0D2807B681B6C23F481737D
:103A200043F002027B681A646F4BFB657B681B687E
:103A3000B3F1A04F02D16D4BFB6002E04FF0A04309
:103A4000FB607B681B689B6803F00303012B08D1B4
:103A50007B681B681B6803F00103012B01D1012364
:103A600000E00023002B1CD1FB68002B10D0FB686A
:103A70009B6803F00303012B07D1FB681B6803F06D
:103A80000103012B01D1012300E00023002B08D109
:103A9000FB6D9B6823F440327B685B681A43FB6DC7
:103AA0009A607B685B7E5B037A68526B012A02D066
:103AB0004FF4805200E000221A437B68DB681A430F
:103AC0007B689B6813433A6E13433B667B6893F8AD
:103AD0002030012B1BD17B685B7E002B09D17B68DA
:103AE0005B6A013B5A043B6E134343F480333B66ED
:103AF0000DE07B681B6C23F0220343F020027B68FF
:103B00001A647B685B6C43F001027B685A647B68D3
:103B10009B6A012B07D07B689A6A7B68DB6A134338
:103B20003A6E13433B667B681B689B6803F00C038B
:103B3000002B14D17B681B68DB687A68126823F459
:103B4000804323F00203D3607B681B7E9A037B686B
:103B500093F830305B0013433A6E13433B667B6847
:103B60001B68DA68224B13407A681268396E0B437F
:103B7000D3607B681B69012B0CD17B681B681B6BB6
:103B800023F00F017B68DB695A1E7B681B680A43C0
:103B90001A6307E07B681B681A6B7B681B6822F05E
:103BA0000F021A637B6800225A647B681B6C23F047
:103BB000030343F001027B681A640AE07B681B6C14
:103BC00023F0120343F010027B681A64012387F884
:103BD000673097F8673018466837BD4680BD00BF2C
:103BE0005000002083DE1B43000300500001005002
:103BF00007C0F0FF80B584B000AF78600023FB738E
:103C00007B681B689B6803F00403002B40F09C80DA
:103C10007B6893F83C30012B01D1022397E07B684D
:103C2000012283F83C20786800F0A2FD0346FB7374
:103C3000FB7B002B40F083807B681B6C23F470635C
:103C400023F0010343F480727B681A64424B9B6843
:103C500003F01F03002B04D07B681B68B3F1A04F57
:103C600015D17B681B6C23F480127B681A647B6817
:103C70001B68DB6803F00073002B27D07B681B6C8C
:103C800023F4405343F480527B681A641EE07B683F
:103C90001B6C43F480127B681A647B681B68B3F169
:103CA000A04F04D07B681B682C4A93420ED14FF082
:103CB000A043DB6803F00073002B07D07B681B6C0C
:103CC00023F4405343F480527B681A647B681B6C76
:103CD00003F48053B3F5805F06D17B685B6C23F0FF
:103CE00006027B685A6402E07B6800225A647B68A3
:103CF000002283F83C207B681B681C221A60164B4C
:103D00009B6803F01F03002B10D0134B9B6803F03C
:103D10001F03052B0AD0104B9B6803F01F03092BD0
:103D200004D07B681B68B3F1A04F0FD17B681B6880
:103D30009A687B681B6842F004029A6006E07B6820
:103D4000002283F83C2001E00223FB73FB7B184632
:103D50001037BD4680BD00BF000300500001005079
:103D600080B584B000AF78600023FB737B6893F864
:103D70003C30012B01D1022323E07B68012283F830
:103D80003C206C21786800F0BDFD0346FB73FB7B93
:103D9000002B11D1786800F04FFD0346FB73FB7BCD
:103DA000002B09D17B681B6C23F4885323F001039B
:103DB00043F001027B681A647B68002283F83C2090
:103DC000FB7B18461037BD4680BD000080B586B02D
:103DD00000AF7860396000233B617B685B69082B2A
:103DE00002D108237B612EE05E4BFB60FB689B6881
:103DF00003F01F03002B12D17B681B68DB6803F004
:103E00000103012B1DD17B681B6C43F020027B68F2
:103E10001A647B68002283F83C2001239DE0FB6844
:103E20009B6803F44043002B0BD07B681B6C43F072
:103E300020027B681A647B68002283F83C200123FF
:103E40008BE00C237B61474B9B6803F01F03002B27
:103E500004D07B681B68B3F1A04F04D17B681B685A
:103E6000DB683B6103E04FF0A043DB683B61FFF799
:103E7000FFFCB86021E03B68B3F1FF3F1DD03B6819
:103E8000002B07D0FFF7F4FC0246BB68D31A3A6850
:103E90009A4212D27B681B681A687B691340002B18
:103EA0000BD17B681B6C43F004027B681A647B684F
:103EB000002283F83C2003234FE07B681B681A68CC
:103EC0007B691340002BD6D07B681B6C43F40072D7
:103ED0007B681A647B681B68DB6803F44063002B13
:103EE00031D13B6903F40053002B2CD17B681B6854
:103EF0001B6803F00803082B25D17B681B689B68AF
:103F000003F00403002B12D17B681B6C23F4807236
:103F10007B681A647B681B6C03F48053002B12D1FE
:103F20007B681B6C43F001027B681A640BE07B68C2
:103F30001B6C43F020027B681A647B685B6C43F067
:103F400001027B685A643B6903F48043002B03D170
:103F50007B681B687A691A60002318461837BD46CB
:103F600080BD00BF0003005080B483B000AF786014
:103F70007B681B681B6C18460C37BD465DF8047BDC
:103F8000704780B584B000AF786039600023FB7360
:103F90007B6893F83C30012B01D102235FE07B6802
:103FA000012283F83C20786800F046FC0346FB734E
:103FB000FB7B002B4ED17B6801221A647B681B6857
:103FC0009A687B681B6822F080429A603B68012BEC
:103FD00007D17B681B689A687B681B6842F0804247
:103FE0009A607B681B689A687B681B6842F0004295
:103FF0009A60FFF73DFCB8601CE0FFF739FC024611
:10400000BB68D31A0A2B15D97B681B689B6803F021
:104010000043B3F1004F0DD17B681B6C23F01203FA
:1040200043F010027B681A647B68002283F83C200E
:10403000012314E07B681B689B6803F00043B3F125
:10404000004FDAD07B681B6C23F0030343F00102BE
:104050007B681A647B68002283F83C20FB7B18464F
:104060001037BD4680BD000080B49BB000AF7860C3
:104070003960002387F867300023BB607B6893F8C2
:104080003C30012B01D10223A1E27B68012283F89D
:104090003C207B681B689B6803F00403002B40F006
:1040A00085823B685B68042B1CD87B681B68196B96
:1040B0003B685A6813465B0013445B001A461F2393
:1040C0009340DB4319403B6818683B685A681346C5
:1040D0005B0013445B0000FA03F27B681B680A4331
:1040E0001A6363E03B685B68092B1ED87B681B681A
:1040F000596B3B685A6813465B0013445B001E3BD8
:104100001F2202FA03F3DB4319403B6818683B683F
:104110005A6813465B0013445B001E3B00FA03F22F
:104120007B681B680A435A6340E03B685B680E2B60
:104130001ED87B681B68996B3B685A6813465B0006
:1041400013445B003C3B1F2202FA03F3DB4319409C
:104150003B6818683B685A6813465B0013445B0071
:104160003C3B00FA03F27B681B680A439A631DE03C
:104170007B681B68D96B3B685A6813465B00134425
:104180005B005A3B1F2202FA03F3DB4319403B68F2
:1041900018683B685A6813465B0013445B005A3B3F
:1041A00000FA03F27B681B680A43DA637B681B68CA
:1041B0009B6803F00C03002B40F0E5803B681B6814
:1041C000092B1CD97B681B6899693B681A681346E0
:1041D0005B0013441E3B072202FA03F3DB43194042
:1041E0003B6898683B681A6813465B0013441E3BA3
:1041F00000FA03F27B681B680A439A6119E07B6846
:104200001B6859693B681A6813465B001344072210
:1042100002FA03F3DB4319403B6898683B681A686D
:1042200013465B00134400FA03F27B681B680A43E1
:104230005A613B685A697B681B68DB68DB0803F0DE
:1042400003035B0002FA03F33B663B681B69013B17
:10425000032B4FD801A252F823F000BF6D42000893
:104260008F420008B1420008D34200087B681B68F7
:104270001A6E9C4B13403A68126891063A6E0A43D4
:104280001A437B681B6842F000421A667BE07B6839
:104290001B685A6E934B13403A68126891063A6E47
:1042A0000A431A437B681B6842F000425A666AE080
:1042B0007B681B689A6E8B4B13403A6812689106B4
:1042C0003A6E0A431A437B681B6842F000429A66C2
:1042D00059E07B681B68DA6E824B13403A681268BB
:1042E00091063A6E0A431A437B681B6842F000420B
:1042F000DA6648E07B681B681B6E03F0F8423B6897
:104300001B689B069A4207D17B681B681A6E7B6804
:104310001B6822F000421A667B681B685B6E03F024
:10432000F8423B681B689B069A4207D17B681B6872
:104330005A6E7B681B6822F000425A667B681B68D5
:104340009B6E03F0F8423B681B689B069A4207D1BC
:104350007B681B689A6E7B681B6822F000429A6635
:104360007B681B68DB6E03F0F8423B681B689B06AA
:104370009A4207D17B681B68DA6E7B681B6822F063
:104380000042DA6600BF7B681B689B6803F003038A
:10439000012B08D17B681B681B6803F00103012B0C
:1043A00001D1012300E00023002B40F00A813B688B
:1043B000DB68012B0FD07B681B68D3F8B0103B681B
:1043C0001B68012202FA03F3DA437B681B680A4088
:1043D000C3F8B02049E07B681B68D3F8B0103B6895
:1043E0001B6801229A407B681B680A43C3F8B0200F
:1043F0003B681B68092B1CD97B681B6899693B6863
:104400001A6813465B0013441B3B072202FA03F3AE
:10441000DB4319403B6898683B681A6813465B00A9
:1044200013441B3B00FA03F27B681B680A439A6142
:104430001BE07B681B6859693B681B685A1C134664
:104440005B001344072202FA03F3DB4319403B6885
:1044500098683B681B685A1C13465B00134400FABB
:1044600003F27B681B680A435A611F4BFB653B687C
:104470001B68102B05D1FB6D9B6803F40003002B18
:1044800015D03B681B68112B05D1FB6D9B6803F0B1
:104490008073002B0BD03B681B68122B40F091807F
:1044A000FB6D9B6803F48003002B40F08A807B68DF
:1044B0001B68B3F1A04F02D10C4BFB6002E04FF040
:1044C000A043FB607B681B689B6803F00303012B20
:1044D0000ED17B681B681B6803F00103012B07D119
:1044E000012306E000F0FF830003005000010050AC
:1044F0000023002B50D1FB68002B10D0FB689B6879
:1045000003F00303012B07D1FB681B6803F00103D1
:10451000012B01D1012300E00023002B3CD13B689B
:104520001B68102B1DD17B681B68B3F1A04F18D1FD
:10453000FB6D9B6843F40002FB6D9A60274B1B6880
:10454000274AA2FB03239A0C13469B0013445B00EB
:10455000BB6002E0BB68013BBB60BB68002BF9D1CC
:104560002EE03B681B68112B0BD17B681B68B3F1F5
:10457000A04F06D1FB6D9B6843F08072FB6D9A6083
:104580001EE03B681B68122B1AD1FB6D9B6843F43D
:104590008002FB6D9A6013E07B681B6C43F0200285
:1045A0007B681A64012387F867300AE07B681B6C1C
:1045B00043F020027B681A64012387F8673000E02B
:1045C00000BF7B68002283F83C2097F867301846CC
:1045D0006C37BD465DF8047B704700BF500000207B
:1045E00083DE1B4380B499B000AF7860396000234C
:1045F00087F85F307B681B68B3F1A04F02D15A4B3C
:10460000BB6002E04FF0A043BB60BB68002B01D150
:104610000123A2E07B6893F83C30012B01D10223F7
:104620009BE07B68012283F83C207B681B689B68C9
:1046300003F00403002B7FD1BB689B6803F00403E5
:10464000002B79D1494BBB653B681B68002B40D0E0
:10465000BB6D9B6823F460423B6859687B6893F8A4
:1046600030305B030B431A43BB6D9A607B681B6859
:104670009B6803F00303012B08D17B681B681B6850
:1046800003F00103012B01D1012300E00023002BE3
:104690005CD1BB689B6803F00303012B07D1BB68A7
:1046A0001B6803F00103012B01D1012300E000236B
:1046B000002B4BD1BB6D9B6823F4716323F00F0378
:1046C0003A6811683A6892680A431A43BB6D9A6067
:1046D0003CE0BB6D9B6823F46042BB6D9A607B68D5
:1046E0001B689B6803F00303012B08D17B681B68E0
:1046F0001B6803F00103012B01D1012300E000231B
:10470000002B23D1BB689B6803F00303012B07D167
:10471000BB681B6803F00103012B01D1012300E0FA
:104720000023002B12D1BB6D9B6823F4716323F02F
:104730000F03BA6D936009E07B681B6C43F02002A5
:104740007B681A64012387F85F3000E000BF7B6854
:10475000002283F83C2097F85F3018466437BD4646
:104760005DF8047B704700BF00010050000300505B
:1047700080B584B000AF78600023FB607B681B6865
:104780009B6803F00303012B08D17B681B681B683F
:1047900003F00103012B01D1012300E00023002BD2
:1047A00043D17B681B689A68224B1340002B0DD0C5
:1047B0007B681B6C43F010027B681A647B685B6C3F
:1047C00043F001027B685A6401232FE07B681B6879
:1047D0009A687B681B6842F001029A60FFF748F80C
:1047E000F8601BE0FFF744F80246FB68D31A022B7F
:1047F00014D97B681B681B6803F00103012B0DD0E3
:104800007B681B6C43F010027B681A647B685B6CEE
:1048100043F001027B685A64012307E07B681B6850
:104820001B6803F00103012BDCD10023184610376D
:10483000BD4680BD3F00008080B584B000AF786089
:104840000023FB607B681B689B6803F00303012B5C
:1048500008D17B681B681B6803F00103012B01D1A1
:10486000012300E00023002B47D07B681B689B6876
:1048700003F00D03012B0FD17B681B689A687B68DE
:104880001B6842F002029A607B681B6803221A6070
:10489000FEF7EEFFF86029E07B681B6C43F0100226
:1048A0007B681A647B685B6C43F001027B685A6426
:1048B000012323E0FEF7DCFF0246FB68D31A022B3C
:1048C00014D97B681B689B6803F00103012B0DD191
:1048D0007B681B6C43F010027B681A647B685B6C1E
:1048E00043F001027B685A64012307E07B681B6880
:1048F0009B6803F00103012BDCD00023184610371E
:10490000BD4680BD80B586B000AF786039600023B9
:104910007B610023FB6000233B617B681B689B6815
:1049200003F00C03002B00F09B807B681B68DB68A6
:1049300003F00073B3F1007F2AD17B685B7E012B0B
:1049400026D17B681B7E012B22D10C233B6014E017
:104950003B69464A93420DD97B681B6C43F01002B9
:104960007B681A647B685B6C43F001027B685A6465
:10497000012376E03B6901333B617B681B681B6860
:1049800003F04003402BE3D17B681B6840221A6090
:104990003B68602B15D07B681B689B6803F00403A1
:1049A000042B0ED17B681B689B6803F00203002B6D
:1049B00007D17B681B689A687B681B6842F010020D
:1049C0009A603B680C2B15D07B681B689B6803F0D2
:1049D0000803082B0ED17B681B689B6803F0020359
:1049E000002B07D17B681B689A687B681B6842F0C4
:1049F00020029A603B68602B05D03B686C2B05D188
:104A00000C237B6105E008237B6102E004237B61CA
:104A100000BFFEF72DFFF8601BE0FEF729FF0246FE
:104A2000FB68D31A0B2B14D97B681B689A687B69C7
:104A30001340002B0DD07B681B6C43F010027B6889
:104A40001A647B685B6C43F001027B685A64012343
:104A500007E07B681B689A687B691340002BDCD1F8
:104A6000002318461837BD4680BD00BFFF930900DC
:104A700080B584B000AF78607B68002B01D1012342
:104A8000EDE07B6893F82030DBB2002B02D1786830
:104A9000FDF726F97B681B681A687B681B6842F083
:104AA00001021A60FEF7E4FEF86012E0FEF7E0FE95
:104AB0000246FB68D31A0A2B0BD97B685B6A43F466
:104AC00000327B685A627B68052283F8202001232C
:104AD000C5E07B681B685B6803F00103002BE5D031
:104AE0007B681B681A687B681B6822F002021A60E8
:104AF000FEF7BEFEF86012E0FEF7BAFE0246FB6863
:104B0000D31A0A2B0BD97B685B6A43F400327B68AB
:104B10005A627B68052283F8202001239FE07B688E
:104B20001B685B6803F00203002BE5D17B681B7EEA
:104B3000012B08D17B681B681A687B681B6842F0F0
:104B400080021A6007E07B681B681A687B681B6834
:104B500022F080021A607B685B7E012B08D17B68A3
:104B60001B681A687B681B6842F040021A6007E005
:104B70007B681B681A687B681B6822F040021A6019
:104B80007B689B7E012B08D17B681B681A687B6859
:104B90001B6842F020021A6007E07B681B681A68F5
:104BA0007B681B6822F020021A607B68DB7E012B89
:104BB00008D17B681B681A687B681B6822F01002AA
:104BC0001A6007E07B681B681A687B681B6842F004
:104BD00010021A607B681B7F012B08D17B681B6861
:104BE0001A687B681B6842F008021A6007E07B685D
:104BF0001B681A687B681B6822F008021A607B68D1
:104C00005B7F012B08D17B681B681A687B681B6877
:104C100042F004021A6007E07B681B681A687B6830
:104C20001B6822F004021A607B689A687B68DB6864
:104C30001A437B681B691A437B685B6942EA03017C
:104C40007B685B685A1E7B681B680A43DA617B6875
:104C500000225A627B68012283F820200023184634
:104C60001037BD4680BD80B487B000AF7860396032
:104C70007B681B687B617B6893F82030FB74FB7C4E
:104C8000012B03D0FB7C022B40F0AA807B69D3F878
:104C9000003243F001027B69C3F800223B685B6984
:104CA00003F01F03012202FA03F3FB607B69D3F8D0
:104CB0001C22FB68DB431A407B69C3F81C223B685B
:104CC000DB69002B23D17B69D3F80C22FB68DB4323
:104CD0001A407B69C3F80C223B68DB6819043B6807
:104CE0005B689BB23A68526919437B69483243F862
:104CF00032103B689B6819043B681B689AB23B689A
:104D00005B690A4379694833DB000B445A603B68AE
:104D1000DB69012B22D17B69D3F80C22FB681A4393
:104D20007B69C3F80C223B681B6819043B685B680D
:104D30009BB23A68526919437B69483243F8321092
:104D40003B689B6819043B68DB689AB23B685B6907
:104D50000A4379694833DB000B445A603B689B691E
:104D6000002B09D17B69D3F80422FB68DB431A408E
:104D70007B69C3F8042207E07B69D3F80422FB684F
:104D80001A437B69C3F804223B681B69002B09D1D5
:104D90007B69D3F81422FB68DB431A407B69C3F8B4
:104DA000142207E07B69D3F81422FB681A437B695D
:104DB000C3F814223B681B6A012B07D17B69D3F827
:104DC0001C22FB681A437B69C3F81C227B69D3F859
:104DD000003223F001027B69C3F80022002306E0C1
:104DE0007B685B6A43F480227B685A620123184621
:104DF0001C37BD465DF8047B704780B584B000AFBA
:104E000078607B6893F82030DBB2012B2ED17B6871
:104E1000022283F820207B681B681A687B681B6865
:104E200022F001021A60FEF723FDF86012E0FEF79F
:104E30001FFD0246FB68D31A0A2B0BD97B685B6AFD
:104E400043F400327B685A627B68052283F8202095
:104E5000012312E07B681B685B6803F00103002BF1
:104E6000E5D17B6800225A62002306E07B685B6A1A
:104E700043F400227B685A62012318461037BD466E
:104E800080BD80B489B000AFF860B9607A603B60E3
:104E9000FB6893F82030FB77FB681B689B68BB615D
:104EA000FB7F012B03D0FB7F022B40F0AD80BB6961
:104EB00003F08063002B0AD1BB6903F00063002B71
:104EC00005D1BB6903F08053002B00F09580BB69CE
:104ED0001B0E03F003037B6101227B699A403B6850
:104EE0001A60BB689B68002B0DD1BB681B685A0514
:104EF000BB68DB68F96809681A437B6918331B01D2
:104F00000B441A600FE0BB685B68DA00BB689B6803
:104F10001A43BB68DB68F96809681A437B69183370
:104F20001B010B441A60FB681968BB681A697B692E
:104F300018331B010B4404331A60BB681B7D012B23
:104F400011D1FB681A687B6918331B0113440433C1
:104F50001B68FA68116843F480727B6918331B017F
:104F60000B4404331A607B6807331B781A067B688E
:104F700006331B781B041A437B6805331B781B021E
:104F800013437A68043212781046FA68116843EACB
:104F900000027B691B010B4403F5C6731A607B6832
:104FA00003331B781A067B6802331B781B041A43F1
:104FB0007B6801331B781B0213437A681278104612
:104FC000FA68116843EA00027B691B010B4403F590
:104FD000C4731A60FB681A687B6918331B01134499
:104FE0001B68FA68116843F001027B6918331B01E2
:104FF0000B441A6000230EE0FB685B6A43F4001266
:10500000FB685A62012306E0FB685B6A43F4802276
:10501000FB685A62012318462437BD465DF8047BBD
:10502000704780B487B000AFF860B9607A603B60C9
:10503000FB6893F82030FB75FB7D012B03D0FB7DD3
:10504000022B40F00381BB68002B0ED1FB681B686C
:10505000DB6803F00303002B16D1FB685B6A43F4A3
:105060000012FB685A620123F7E0FB681B681B69AA
:1050700003F00303002B07D1FB685B6A43F40012C3
:10508000FB685A620123E8E0FB681A68BB681B33BF
:105090001B0113441B6803F004027B689A607B6861
:1050A0009B68002B0CD1FB681A68BB681B331B0183
:1050B00013441B685B0DC3F30A027B681A600BE0A4
:1050C000FB681A68BB681B331B0113441B68DB08B1
:1050D00023F060427B685A60FB681A68BB681B3328
:1050E0001B0113441B6803F002027B68DA60FB6853
:1050F0001A68BB681B331B01134404331B6803F09D
:105100000803002B03D07B6808221A610BE0FB68C0
:105110001A68BB681B331B01134404331B6803F07C
:105120000F027B681A61FB681A68BB681B331B019E
:10513000134404331B681B0ADAB27B689A61FB686C
:105140001A68BB681B331B01134404331B681B0C18
:105150009AB27B685A61FB681A68BB681B011344EA
:1051600003F5DC731B68DAB23B681A70FB681A68D7
:10517000BB681B01134403F5DC731B681A0A3B6808
:105180000133D2B21A70FB681A68BB681B01134462
:1051900003F5DC731B681A0C3B680233D2B21A7039
:1051A000FB681A68BB681B01134403F5DC731B68BA
:1051B0001A0E3B680333D2B21A70FB681A68BB68D8
:1051C0001B01134403F5DE731A683B680433D2B243
:1051D0001A70FB681A68BB681B01134403F5DE7381
:1051E0001B681A0A3B680533D2B21A70FB681A684A
:1051F000BB681B01134403F5DE731B681A0C3B6884
:105200000633D2B21A70FB681A68BB681B011344DC
:1052100003F5DE731B681A0E3B680733D2B21A70AF
:10522000BB68002B08D1FB681B68DA68FB681B6849
:1052300042F02002DA6007E0FB681B681A69FB682D
:105240001B6842F020021A61002306E0FB685B6ADB
:1052500043F48022FB685A62012318461C37BD467E
:105260005DF8047B704780B485B000AF786039602A
:105270000023FB607B6893F82030FB72FB7A012BE4
:1052800002D0FB7A022B0FD13B68002B06D17B6842
:105290001B68DB6803F00303FB6005E07B681B68A9
:1052A0001B6903F00303FB60FB6818461437BD4617
:1052B0005DF8047B704780B485B000AF78603960DA
:1052C0007B6893F82030FB73FB7B012B02D0FB7BC8
:1052D000022B09D17B681B6859697B681B683A6897
:1052E0000A435A61002306E07B685B6A43F480222C
:1052F0007B685A62012318461437BD465DF8047B6B
:105300007047000080B485B000AF78607B6803F020
:105310000703FB600C4BDB68BB60BA684FF6FF030A
:105320001340BB60FB681A02BB68134343F0BF63C2
:1053300043F40033BB60044ABB68D36000BF14373A
:10534000BD465DF8047B704700ED00E080B400AF1F
:10535000044BDB681B0A03F007031846BD465DF8E3
:10536000047B704700ED00E080B483B000AF0346DB
:10537000FB7197F90730002B0BDBFB7903F01F0261
:10538000074997F907305B09012000FA02F241F85A
:10539000232000BF0C37BD465DF8047B704700BF7B
:1053A00000E100E080B483B000AF03463960FB71D8
:1053B00097F90730002B0ADB3B68DAB20C4997F902
:1053C00007301201D2B20B4483F800230AE03B6895
:1053D000DAB20849FB7903F00F03043B1201D2B2A1
:1053E0000B441A7600BF0C37BD465DF8047B70474E
:1053F00000E100E000ED00E080B489B000AFF860AB
:10540000B9607A60FB6803F00703FB61FB69C3F1D5
:105410000703042B28BF0423BB61FB690433062B5D
:1054200002D9FB69033B00E000237B614FF0FF32B0
:10543000BB6902FA03F3DA43BB681A407B699A40FE
:105440004FF0FF317B6901FA03F3D9437B680B40CE
:10545000134318462437BD465DF8047B70470000AF
:1054600080B582B000AF78607B68013BB3F1807F8C
:1054700001D301230FE00A4A7B68013B53600F21EF
:105480004FF0FF30FFF78EFF054B00229A60044B70
:1054900007221A60002318460837BD4680BD00BFAA
:1054A00010E000E080B582B000AF78607868FFF768
:1054B00029FF00BF0837BD4680BD80B586B000AF6C
:1054C0000346B9607A60FB7300237B61FFF73EFF00
:1054D00078617A68B9687869FFF78EFF024697F9B4
:1054E0000F3011461846FFF75DFF00BF1837BD4665
:1054F00080BD80B582B000AF0346FB7197F90730DD
:105500001846FFF731FF00BF0837BD4680BD80B5A4
:1055100082B000AF78607868FFF7A2FF03461846B4
:105520000837BD4680BD000080B487B000AF78600A
:10553000396000237B6154E13B681A6801217B6973
:1055400001FA03F31340FB60FB68002B00F0468177
:105550003B685B6803F00303012B05D03B685B6885
:1055600003F00303022B30D17B689B683B617B69AE
:105570005B00032202FA03F3DB433A6913403B6109
:105580003B68DA687B695B0002FA03F33A6913430C
:105590003B617B683A699A607B685B683B6101228A
:1055A0007B6902FA03F3DB433A6913403B613B68D2
:1055B0005B681B0903F001027B6902FA03F33A6995
:1055C00013433B617B683A695A603B685B6803F050
:1055D0000303032B17D07B68DB683B617B695B00AF
:1055E000032202FA03F3DB433A6913403B613B6851
:1055F0009A687B695B0002FA03F33A6913433B61E3
:105600007B683A69DA603B685B6803F00303022B4E
:1056100023D17B69DA087B68083253F822303B617A
:105620007B6903F007039B000F2202FA03F3DB43BD
:105630003A6913403B613B681A697B6903F00703D1
:105640009B0002FA03F33A6913433B617B69DA0872
:105650007B680832396943F822107B681B683B611C
:105660007B695B00032202FA03F3DB433A691340D0
:105670003B613B685B6803F003027B695B0002FAF5
:1056800003F33A6913433B617B683A691A603B68EC
:105690005B6803F44033002B00F0A080584B9B69FB
:1056A000574A43F001039361554B9B6903F0010393
:1056B000BB60BB68534A7B699B08023352F82330B6
:1056C0003B617B6903F003039B000F2202FA03F3A3
:1056D000DB433A6913403B617B68B3F1904F19D0CB
:1056E0007B68494A934213D07B68484A93420DD065
:1056F0007B68474A934207D07B68464A934201D170
:10570000042308E0052306E0032304E0022302E06B
:10571000012300E000237A6902F003029200934023
:105720003A6913433B6137497B699B0802333A6905
:1057300041F82320384B9B683B61FB68DB433A69A7
:1057400013403B613B685B6803F48013002B03D07C
:105750003A69FB6813433B612F4A3B6993602E4BC8
:10576000DB683B61FB68DB433A6913403B613B68A4
:105770005B6803F40013002B03D03A69FB68134302
:105780003B61254A3B69D360234B5B683B61FB6807
:10579000DB433A6913403B613B685B6803F40033C9
:1057A000002B03D03A69FB6813433B611A4A3B69FB
:1057B0005360194B1B683B61FB68DB433A6913403C
:1057C0003B613B685B6803F48033002B03D03A698C
:1057D000FB6813433B61104A3B6913607B690133EB
:1057E0007B613B681A687B6922FA03F3002B7FF424
:1057F000A3AE00BF00BF1C37BD465DF8047B7047F9
:105800000010024000000140000400480008004869
:10581000000C0048001000480004014080B485B02E
:1058200000AF78600B467B807B681A697B881340E9
:10583000002B02D00123FB7301E00023FB73FB7BF1
:1058400018461437BD465DF8047B704780B483B0BA
:1058500000AF78600B467B8013467B707B78002B13
:1058600003D07A887B689A6102E07A887B689A62C2
:1058700000BF0C37BD465DF8047B704780B485B02F
:1058800000AF78600B467B807B685B69FB607A8841
:10589000FB6813401A04FB68D9437B880B401A430A
:1058A0007B689A6100BF1437BD465DF8047B704782
:1058B00080B582B000AF0346FB80084B5A69FB8875
:1058C0001340002B06D0054AFB885361FB8818461D
:1058D00000F006F800BF0837BD4680BD0004014057
:1058E00080B483B000AF0346FB8000BF0C37BD46D9
:1058F0005DF8047B704780B582B000AF78607B684C
:10590000002B01D1012381E07B6893F84130DBB2A9
:10591000002B06D17B68002283F840207868FCF7D2
:1059200023FA7B68242283F841207B681B681A686D
:105930007B681B6822F001021A607B685A687B68EA
:105940001B6822F070621A617B681B689A687B682A
:105950001B6822F400429A607B68DB68012B07D148
:105960007B689A687B681B6842F400429A6006E094
:105970007B689A687B681B6842F404429A607B6883
:10598000DB68022B04D17B681B684FF400625A600D
:105990007B681B685B687A68126843F0007343F4A5
:1059A000004353607B681B68DA687B681B6822F4DD
:1059B0000042DA607B681A697B685B6942EA03012E
:1059C0007B689B691A027B681B680A43DA607B6804
:1059D000D9697B681A6A7B681B680A431A607B680E
:1059E0001B681A687B681B6842F001021A607B68BA
:1059F00000225A647B68202283F841207B680022C1
:105A00001A637B68002283F8422000231846083777
:105A1000BD4680BD80B588B002AFF8607A601A4696
:105A20000B467B8113463B81FB6893F84130DBB228
:105A3000202B40F0DA80FB6893F84030012B01D135
:105A40000223D3E0FB68012283F84020FDF710FF1A
:105A500078617B690093192301224FF40041F868B3
:105A600000F0E6F90346002B01D00123BEE0FB68FD
:105A7000212283F84120FB68102283F84220FB6832
:105A800000225A64FB687A685A62FB683A895A8530
:105A9000FB6800225A63FB685B8D9BB2FF2B0ED91B
:105AA000FB68FF221A85FB681B8DDAB27989514B9E
:105AB00000934FF08073F86800F0F6FB6CE0FB6831
:105AC0005B8D9AB2FB681A85FB681B8DDAB2798907
:105AD000484B00934FF00073F86800F0E5FB5BE083
