:020000040800F2
:1000000000800020A1330008C51B0008CB1B00089E
:10001000D11B0008D71B0008DD1B000800000000F2
:10002000000000000000000000000000E31B0008CA
:10003000F11B000800000000FF1B00080D1C000859
:10004000F1330008F1330008F1330008F133000800
:10005000F1330008F1330008F1330008F1330008F0
:10006000F1330008F1330008F1330008F1330008E0
:10007000F1330008F1330008F1330008F1330008D0
:10008000F1330008F1330008F1330008F1330008C0
:10009000F1330008F1330008F1330008191C00089F
:1000A000F1330008F1330008F1330008F1330008A0
:1000B000F1330008F1330008F1330008F133000890
:1000C000F1330008F1330008F1330008F133000880
:1000D000F1330008F1330008F1330008F133000870
:1000E000F1330008F1330008F1330008000000008C
:1000F0000000000000000000000000000000000000
:10010000000000000000000000000000F1330008C3
:10011000F1330008F1330008911C000800000000D2
:10012000F1330008F1330008F1330008F13300081F
:10013000F133000800000000000000000000000093
:10014000F1330008F1330008000000000000000057
:10015000000000000000000000000000000000009F
:100160000000000000000000F1330008F133000837
:10017000F133000800000000000000000000000053
:0801800000000000F13300084B
:1001900010B5054C237833B9044B13B10448AFF3C1
:1001A00000800123237010BDF40100200000000036
:1001B000E8C0000808B5034B1BB103490348AFF37F
:1001C000008008BD00000000F8010020E8C0000821
:1001D00001F0FF01102A2BDB10F0070F08D010F8F8
:1001E000013B013A8B422DD010F0070F42B3F6D1FC
:1001F000F0B441EA012141EA014122F007047FF015
:1002000000070023F0E80256083C85EA010586EA6B
:10021000010685FA47F5A3FA87F586FA47F6A5FAA7
:1002200087F68EB9EED1F0BC01F0FF0102F00702B3
:1002300032B110F8013B013A83EA010313B1F8D15E
:100240000020704701387047002D06BF354603383F
:10025000073815F0010F07D1013015F4807F02BF78
:10026000013015F4C03F0130F0BC0138704700BFC9
:10027000034613F8012B002AFBD1181A01387047E6
:1002800081F0004102E000BF83F0004330B54FEA47
:1002900041044FEA430594EA050F08BF90EA020FB4
:1002A0001FBF54EA000C55EA020C7FEA645C7FEA47
:1002B000655C00F0E2804FEA5454D4EB5555B8BF6A
:1002C0006D420CDD2C4480EA020281EA030382EADB
:1002D000000083EA010180EA020281EA0303362D6D
:1002E00088BF30BD11F0004F4FEA01314FF4801C40
:1002F0004CEA113102D0404261EB410113F0004F52
:100300004FEA03334CEA133302D0524263EB430308
:1003100094EA050F00F0A780A4F10104D5F1200EA6
:100320000DDB02FA0EFC22FA05F2801841F1000101
:1003300003FA0EF2801843FA05F359410EE0A5F1D5
:1003400020050EF1200E012A03FA0EFC28BF4CF006
:10035000020C43FA05F3C01851EBE37101F00045BC
:1003600007D54FF0000EDCF1000C7EEB00006EEBC9
:100370000101B1F5801F1BD3B1F5001F0CD3490853
:100380005FEA30004FEA3C0C04F101044FEA4452AA
:1003900012F5800F80F09A80BCF1004F08BF5FEA31
:1003A000500C50F1000041EB045141EA050130BD11
:1003B0005FEA4C0C404141EB0101013C28BFB1F523
:1003C000801FE9D291F0000F04BF01460020B1FA6E
:1003D00081F308BF2033A3F10B03B3F120020CDA41
:1003E0000C3208DD02F1140CC2F10C0201FA0CF01F
:1003F00021FA02F10CE002F11402D8BFC2F1200C84
:1004000001FA02F120FA0CFCDCBF41EA0C01904039
:10041000E41AA2BF01EB0451294330BD6FEA040482
:100420001F3C1CDA0C340EDC04F11404C4F120026D
:1004300020FA04F001FA02F340EA030021FA04F37F
:1004400045EA030130BDC4F10C04C4F1200220FAD6
:1004500002F001FA04F340EA0300294630BD21FA14
:1004600004F0294630BD94F0000F83F4801306BFDA
:1004700081F480110134013D4EE77FEA645C18BFCE
:100480007FEA655C29D094EA050F08BF90EA020F65
:1004900005D054EA000C04BF1946104630BD91EA5D
:1004A000030F1EBF0021002030BD5FEA545C05D160
:1004B0004000494128BF41F0004130BD14F580049F
:1004C0003CBF01F5801130BD01F0004545F0FE4113
:1004D00041F470014FF0000030BD7FEA645C1ABF48
:1004E000194610467FEA655C1CBF0B46024650EA7F
:1004F000013406BF52EA033591EA030F41F40021AB
:1005000030BD00BF90F0000F04BF0021704730B530
:100510004FF4806404F132044FF000054FF0000105
:1005200050E700BF90F0000F04BF0021704730B5C6
:100530004FF4806404F1320410F0004548BF40429B
:100540004FF000013EE700BF42004FEAE2014FEAF0
:1005500031014FEA02701FBF12F07F4393F07F4FCB
:1005600081F06051704732F07F4208BF704793F0CE
:100570007F4F04BF41F40021704730B54FF46074E1
:1005800001F0004521F000411CE700BF50EA0102E4
:1005900008BF704730B54FF000050AE050EA01028D
:1005A00008BF704730B511F0004502D5404261EBFD
:1005B00041014FF4806404F132045FEA915C3FF43E
:1005C000D8AE4FF003025FEADC0C18BF03325FEADB
:1005D000DC0C18BF033202EBDC02C2F1200300FA8C
:1005E00003FC20FA02F001FA03FE40EA0E0021FAB1
:1005F00002F11444BDE600BF70B54FF0FF0C4CF49F
:10060000E06C1CEA11541DBF1CEA135594EA0C0F50
:1006100095EA0C0F00F0DEF82C4481EA030621EA8B
:100620004C5123EA4C5350EA013518BF52EA0335C6
:1006300041F4801143F4801338D0A0FB02CE4FF078
:100640000005E1FB02E506F00042E0FB03E54FF0A8
:100650000006E1FB03569CF0000F18BF4EF0010EA0
:10066000A4F1FF04B6F5007F64F5407404D25FEA9C
:100670004E0E6D4146EB060642EAC62141EA55514F
:100680004FEAC52040EA5E504FEACE2EB4F1FD0C91
:1006900088BFBCF5E06F1ED8BEF1004F08BF5FEA0F
:1006A000500E50F1000041EB045170BD06F00046C1
:1006B00046EA010140EA020081EA0301B4EB5C046E
:1006C000C2BFD4EB0C0541EA045170BD41F4801166
:1006D0004FF0000E013C00F3AB8014F1360FDEBF8B
:1006E000002001F0004170BDC4F10004203C35DA67
:1006F0000C341BDC04F11404C4F1200500FA05F3EA
:1007000020FA04F001FA05F240EA020001F000428A
:1007100021F0004110EBD37021FA04F642EB060100
:100720005EEA430E08BF20EAD37070BDC4F10C042A
:10073000C4F1200500FA04F320FA05F001FA04F2EE
:1007400040EA020001F0004110EBD37041F10001DA
:100750005EEA430E08BF20EAD37070BDC4F12005E5
:1007600000FA05F24EEA020E20FA04F301FA05F24D
:1007700043EA020321FA04F001F0004121FA04F2F5
:1007800020EA020000EBD3705EEA430E08BF20EAC5
:10079000D37070BD94F0000F0FD101F000464000FF
:1007A00041EB010111F4801F08BF013CF7D041EA81
:1007B000060195F0000F18BF704703F00046520085
:1007C00043EB030313F4801F08BF013DF7D043EA56
:1007D0000603704794EA0C0F0CEA135518BF95EA0C
:1007E0000C0F0CD050EA410618BF52EA4306D1D193
:1007F00081EA030101F000414FF0000070BD50EAB2
:10080000410606BF1046194652EA430619D094EA3B
:100810000C0F02D150EA013613D195EA0C0F05D125
:1008200052EA03361CBF104619460AD181EA030179
:1008300001F0004141F0FE4141F470014FF0000031
:1008400070BD41F0FE4141F4780170BD70B54FF0CC
:10085000FF0C4CF4E06C1CEA11541DBF1CEA13554C
:1008600094EA0C0F95EA0C0F00F0A7F8A4EB05042E
:1008700081EA030E52EA03354FEA013100F0888025
:100880004FEA03334FF0805545EA131343EA1263EE
:100890004FEA022245EA111545EA10654FEA0026A3
:1008A0000EF000419D4208BF964244F1FD0404F55C
:1008B000407402D25B084FEA3202B61A65EB0305B8
:1008C0005B084FEA32024FF480104FF4002CB6EB75
:1008D000020E75EB030E22BFB61A754640EA0C00F5
:1008E0005B084FEA3202B6EB020E75EB030E22BF35
:1008F000B61A754640EA5C005B084FEA3202B6EB76
:10090000020E75EB030E22BFB61A754640EA9C0034
:100910005B084FEA3202B6EB020E75EB030E22BF04
:10092000B61A754640EADC0055EA060E18D04FEAC2
:10093000051545EA16754FEA06164FEAC30343EA62
:1009400052734FEAC2025FEA1C1CC0D111F4801F2F
:100950000BD141EA00014FF000004FF0004CB6E728
:1009600011F4801F04BF01430020B4F1FD0C88BFC7
:10097000BCF5E06F3FF6AFAEB5EB030C04BFB6EBD2
:10098000020C5FEA500C50F1000041EB045170BDC5
:100990000EF0004E4EEA113114EB5C04C2BFD4EBF2
:1009A0000C0541EA045170BD41F480114FF0000E76
:1009B000013C90E645EA060E8DE60CEA135594EAF2
:1009C0000C0F08BF95EA0C0F3FF43BAF94EA0C0FF5
:1009D0000AD150EA01347FF434AF95EA0C0F7FF46A
:1009E00025AF104619462CE795EA0C0F06D152EABE
:1009F00003353FF4FDAE1046194622E750EA4106A2
:100A000018BF52EA43067FF4C5AE50EA41047FF4B2
:100A10000DAF52EA43057FF4EBAE12E74FF0FF3C17
:100A200006E000BF4FF0010C02E000BF4FF0010CE8
:100A30004DF804CD4FEA410C7FEA6C5C4FEA430C61
:100A400018BF7FEA6C5C1BD001B050EA410C0CBFB0
:100A500052EA430C91EA030F02BF90EA020F002012
:100A6000704710F1000F91EA030F58BF994208BF79
:100A700090422CBFD8176FEAE37040F00100704736
:100A80004FEA410C7FEA6C5C02D150EA013C07D18D
:100A90004FEA430C7FEA6C5CD6D152EA033CD3D0D8
:100AA0005DF8040B704700BF8446104662468C46D2
:100AB0001946634600E000BF01B5FFF7B7FF002805
:100AC00048BF10F1000F01BD4DF808EDFFF7F4FF2E
:100AD0000CBF012000205DF808FB00BF4DF808EDB9
:100AE000FFF7EAFF34BF012000205DF808FB00BFDC
:100AF0004DF808EDFFF7E0FF94BF012000205DF8FE
:100B000008FB00BF4DF808EDFFF7CEFF94BF0120B2
:100B100000205DF808FB00BF4DF808EDFFF7C4FFAB
:100B200034BF012000205DF808FB00BF4FEA410CF4
:100B30007FEA6C5C02D150EA013C0AD14FEA430CD7
:100B40007FEA6C5C02D152EA033C02D14FF0000014
:100B500070474FF0010070474FEA410212F5001252
:100B600015D211D56FF47873B3EB625212D94FEAF4
:100B7000C12343F0004343EA505311F0004F23FADE
:100B800002F018BF404270474FF00000704750EA33
:100B9000013005D111F0004008BF6FF000407047F0
:100BA0004FF00000704700BF4A0011D212F500124A
:100BB00011D20DD56FF47873B3EB62520ED44FEAB5
:100BC000C12343F0004343EA505323FA02F0704735
:100BD0004FF00000704750EA013002D14FF0FF3073
:100BE00070474FF0000070474FEA4102B2F1E04316
:100BF00024BFB3F5001CDCF1FE5C0DD901F0004C04
:100C00004FEAC0024CEA5070B2F1004F40EB830053
:100C100008BF20F00100704711F0804F21D113F17F
:100C20003872BCBF01F00040704741F480114FEAB8
:100C30005252C2F11802C2F1200C10FA0CF320FA41
:100C400002F018BF40F001004FEAC1234FEAD3235E
:100C500003FA0CFC40EA0C0023FA02F34FEA4303C8
:100C6000CCE77FEA625307D150EA01331EBF4FF051
:100C7000FE4040F44000704701F0004040F0FE406C
:100C800040F40000704700BF38B50022002304463E
:100C90000D46FFF723FF28B920462946BDE8384016
:100CA00000F00AB8204605F1004100F005F8404286
:100CB00061EB410138BD00BFD0B50C4B00220646A8
:100CC0000F46FFF799FCFFF76FFF0446FFF71AFC8A
:100CD000074B0022FFF790FC02460B463046394690
:100CE000FFF7D2FAFFF760FF2146D0BD0000F03DCC
:100CF0000000F04180B483B000AF03463960FB8050
:100D0000FB88DAB23B681A70FB881B0A9AB23B6810
:100D10000133D2B21A7000BF0C37BD465DF8047BB8
:100D2000704780B485B000AF78607B6801331B7872
:100D30001B029BB27A6812781343FB60FB689BB27C
:100D400018461437BD465DF8047B704780B500AF88
:100D500020214FF0904003F0ADFA0346184680BDC5
:100D600080B500AF40214FF0904003F0A3FA034656
:100D7000184680BD80B500AF80214FF0904003F051
:100D800099FA0346184680BD80B582B000AF03468D
:100D9000FB71FB791A464FF40051034803F0A2FAA5
:100DA00000BF0837BD4680BD0008004880B582B04E
:100DB00000AF0346FB71FB791A460121034803F09B
:100DC00091FA00BF0837BD4680BD00BF000400484F
:100DD00080B582B000AF0346FB71FB791A46022151
:100DE000034803F07FFA00BF0837BD4680BD00BF4F
:100DF0000004004880B582B000AF0346FB71FB7968
:100E00001A460421034803F06DFA00BF0837BD46B7
:100E100080BD00BF0004004880B582B000AF03462B
:100E2000FB71FB791A464FF48061034803F05AFACC
:100E300000BF0837BD4680BD0004004880B582B0C1
:100E400000AF0346FB71FB791A464FF4006103487B
:100E500003F048FA00BF0837BD4680BD00040048D3
:100E600080B582B000AF0346FB71FB791A464FF4A0
:100E70008041034803F036FA00BF0837BD4680BD05
:100E80000008004880B582B000AF0346FB71FB79D3
:100E90001A464FF40041034803F024FA00BF083714
:100EA000BD4680BD0008004880B582B000AF034653
:100EB000FB71FB791A464FF48051034803F012FA94
:100EC00000BF0837BD4680BD0004004880B582B031
:100ED00000AF0346FB71FB791A464FF480614FF077
:100EE000904003F0FFF900BF0837BD4680BD000009
:100EF00080B500AF4FF40051024803F00BFA00BF79
:100F000080BD00BF0008004880B582B000AF034636
:100F10003960FB711346BB80FB79012B05D1BA8880
:100F200064233968034806F075F800BF0837BD46EA
:100F300080BD00BFD403002080B500AF1C4B1B78E0
:100F4000032B1DD801A252F823F000BFAB0F0008FD
:100F50005D0F0008690F0008750F000801F0A8FC7C
:100F6000134B00221A7021E001F0AEFD104B00225D
:100F70001A701BE001F01CFE0D4B00221A7015E0E8
:100F8000802200210B4807F076FC0B4A7F2109489C
:100F900007F0DAFB094B1B78802206491846FFF759
:100FA000B3FF034B00221A7000E000BF00BF80BDFA
:100FB0002A0500206804002000C100081B00002052
:100FC00080B584B000AF02F015FA00F0FFF900F030
:100FD000BFFB00F053FA00F087FA00F0C5FA00F00A
:100FE00001FB00F037FB00F05BFB00F081FB4FF4EE
:100FF0007A7002F065FA01F095FB80220021914899
:1010000007F039FC904B914A7F218E4807F09CFBFA
:101010008F4B1B7880228B491846FFF775FF802283
:101020000021884807F027FC8A4B8B4A7F2185489E
:1010300007F08AFB864B1B78802282491846FFF70F
:1010400063FF01F0BDFD0346002B11D0802200217B
:101050007C4807F010FC814A7F217A4807F074FB36
:101060007B4B1B78802277491846FFF74DFF13E032
:101070007B4B00221A7080220021724807F0FBFB94
:10108000784A7F216F4807F05FFB714B1B78802205
:101090006C491846FFF738FF01F098FB724B1B892B
:1010A000184601F0C5F90023BB60704B1B681B6834
:1010B000BB6080220021634807F0DDFBBB686C4AFF
:1010C0007F21604807F040FB614B1B7880225D491F
:1010D0001846FFF719FF624B1B78002B10D08022B7
:1010E0000021584807F0C7FB624A7F21554807F0A6
:1010F0002BFB574B1B78802252491846FFF704FF01
:101100000023FB7334E15C4B1B78002B04D05A4B5B
:1011100000221A70FFF7ECFE0021544802F0EFFDA8
:101120000346002B54D0012000F098FE0822002135
:10113000524807F0A0FB514B514A00214B4802F0A6
:10114000BCFC03461A464F4B1A704E4B1B78002BC3
:101150002AD14A4B1A784C4B1A7080220021394808
:1011600007F089FB464B1B68484A7F21354807F04A
:10117000EBFA374B1B78802232491846FFF7C4FE42
:10118000802200212F4807F076FB3F4B1B78404A16
:101190007F212C4807F0D8FA2D4B1B788022294953
:1011A0001846FFF7B1FE13E080220021254807F022
:1011B00062FB384A7F21234807F0C6FA244B1B788C
:1011C000802220491846FFF79FFE2F4B00221A70FD
:1011D000FFF7B2FE244B1B78002B72D0224B00226B
:1011E0001A7080220021174807F045FB2A4A7F2108
:1011F000144807F0A9FA164B1B78802211491846AB
:10120000FFF782FE4FF4C86300220021032001F0A3
:101210005BF80346FB71FB792F2B41D08022002124
:10122000084807F028FBFB791C4A7F21054807F096
:101230008BFA074B1B78802202491846FFF764FEA1
:101240003FE000BF680400200000002044C1000807
:101250001B000020080000205CC1000870C10008CD
:101260001C00002098C100085C040020100200202F
:10127000D0C10008ECC1000829050020200500208D
:1012800004050020280500202A0500200CC20008C3
:101290003CC2000854C2000884C2000898C200087A
:1012A00080220021404807F0E6FA404A7F213E486C
:1012B00007F04AFA3E4B1B7880223B491846FFF75D
:1012C00023FE3C4B5B78002B24D03A4B00225A7013
:1012D00080220021344807F0CEFA374A7F21324875
:1012E00007F032FA324B1B7880222F491846FFF75D
:1012F0000BFE802200212C4807F0BDFA2F4A7F21E7
:10130000294807F021FA2A4B1B78802226491846E3
:10131000FFF7FAFD274B9B78002B29D0254B0022A5
:101320009A7080220021204807F0A5FA244A7F21E4
:101330001D4807F009FA1E4B1B7880221A491846EF
:10134000FFF7E2FDFFF7D4FDFB7B002B08D1012066
:10135000FFF786FD0020FFF795FD0123FB7307E0F3
:101360000020FFF77DFD0120FFF78CFD0023FB73BC
:10137000144B1B78002B7FF4C6AE802200210A4854
:1013800007F079FA104A7F21074807F0DDF9084B8A
:101390001B78802204491846FFF7B6FD0023184643
:1013A0001037BD4680BD00BF68040020C0C20008E1
:1013B0001B0000205C040020D8C20008ECC200081A
:1013C00014C300081C00002028C3000880B59CB08E
:1013D00000AF07F1480328220021184607F04BFA16
:1013E00007F1340300221A605A609A60DA601A61C9
:1013F0003B4634220021184607F03DFA0223BB6425
:101400000123BB651023FB6502237B660023BB66BB
:101410004FF40023FB6607F14803184603F05AFD1A
:101420000346002B01D000F047FA0F237B63022311
:10143000BB630023FB6300233B6400237B6407F151
:1014400034030021184604F083FD0346002B01D02D
:1014500000F032FA22233B600023FB600023FB6193
:101460003B46184604F0AAFF0346002B01D000F0CB
:1014700023FA00BF7037BD4680BD000080B500AFC5
:10148000174B184A1A60164B04225A60144B00225C
:101490009A60134B0022DA60114B4FF440221A611C
:1014A0000F4B4FF480125A610D4B00221A760C4BF1
:1014B00000225A760A4B00229A76094B0122DA76EC
:1014C000074B00221A77064B00225A77044802F095
:1014D0001BF80346002B01D000F0EEF900BF80BDE1
:1014E000100200200064004080B500AF1B4B1C4A76
:1014F0001A601A4B1B4A5A60184B00229A60174B0D
:101500000122DA60154B00221A61144B00225A6145
:10151000124B00229A61114B0022DA610F4B00221C
:101520001A620E4802F033FF0346002B01D000F090
:10153000C3F90021094803F035FC0346002B01D014
:1015400000F0BAF90021054803F077FC0346002BB0
:1015500001D000F0B1F900BF80BD00BF380200200B
:10156000005400400E09002080B500AF1B4B1C4A00
:101570001A601A4B4FF482725A60184B00229A601C
:10158000164B4FF4E062DA60144B02221A61134BDF
:1015900001225A61114B4FF400729A610F4B1022D5
:1015A000DA610E4B00221A620C4B00225A620B4B7E
:1015B00000229A62094B0722DA62084B00221A6362
:1015C000064B00225A63054805F08AF80346002BB3
:1015D00001D000F071F900BF80BD00BF8C02002077
:1015E0000038004080B584B000AF3B1D00221A6077
:1015F0005A609A60154B164A1A60144B43F67F6284
:101600005A60124B00229A60104B40F2F312DA60DB
:101610000E4B00229A610D4805F00DF90346002B90
:1016200001D000F049F900237B600023FB603B1DE3
:101630001946064805F00EFC0346002B01D000F0C9
:101640003BF900BF1037BD4680BD00BFF00200204F
:101650000010004080B500AF0F4B104A1A600E4BCF
:101660000F225A600C4B00229A600B4B4FF6FF7210
:10167000DA60094B00221A61074B00225A61064BBF
:1016800000229A61044805F0D6F80346002B01D0E9
:1016900000F012F900BF80BD3C030020004401406F
:1016A00080B500AF104B114A1A600F4B43F67F62B2
:1016B0005A600D4B00229A600B4B4FF6FF72DA60B6
:1016C000094B00221A61084B00225A61064B002286
:1016D0009A61054805F0AFF80346002B01D000F0F1
:1016E000EBF800BF80BD00BF880300200048014028
:1016F00080B500AF144B154A1A60134B4FF41642D5
:101700005A60114B00229A600F4B0022DA600E4B98
:1017100000221A610C4B0C225A610B4B00229A6179
:10172000094B0022DA61084B00221A62064B0022A4
:101730005A62054805F020FC0346002B01D000F05A
:10174000BBF800BF80BD00BFD403002000440040B0
:1017500080B588B000AF07F10C0300221A605A6010
:101760009A60DA601A61514B5B69504A43F4002376
:1017700053614E4B5B6903F40023BB60BB684B4B6A
:101780005B694A4A43F400335361484B5B6903F495
:1017900000337B607B68454B5B69444A43F480239C
:1017A0005361424B5B6903F480233B603B6800223A
:1017B0004FF460413E4802F095FD01224FF48261F2
:1017C0004FF0904002F08EFD002240F6074139486C
:1017D00002F088FD01224FF48051364802F082FD6C
:1017E0004FF40053FB6001233B6100237B61002326
:1017F000BB6107F10C0319462D4802F0E1FB4FF4E1
:101800004043FB6001233B6102237B610023BB61FA
:1018100007F10C031946264802F0D2FB1023FB60A7
:1018200001233B6101237B610323BB6107F10C03AF
:1018300019464FF0904002F0C3FBE023FB604FF4E9
:1018400088133B6100237B6107F10C0319464FF0BD
:10185000904002F0B5FB41F60743FB6001233B617A
:1018600000237B610023BB6107F10C03194611487B
:1018700002F0A6FB4FF48063FB6001233B61002371
:101880007B610023BB6107F10C0319464FF09040C8
:1018900002F096FB00220021172002F05AFB1720CD
:1018A00002F073FB00BF2037BD4680BD0010024030
:1018B000000800480004004880B400AF72B600BFC2
:1018C000FEE7000080B483B000AF0F4B9B690E4A67
:1018D00043F0010393610C4B9B6903F001037B60B0
:1018E0007B68094BDB69084A43F08053D361064BA0
:1018F000DB6903F080533B603B6800BF0C37BD469B
:101900005DF8047B704700BF0010024080B58AB0CC
:1019100000AF786007F1140300221A605A609A60E1
:10192000DA601A617B681B68174A934228D1174B0B
:10193000DB69164A43F00073D361144BDB6903F093
:1019400000733B613B69114B5B69104A43F4802390
:1019500053610E4B5B6903F48023FB60FB684FF41B
:1019600040737B610223BB610023FB6103233B6265
:1019700009237B6207F114031946054802F020FB96
:1019800000BF2837BD4680BD006400400010024003
:101990000004004880B58AB000AF786007F11403F6
:1019A00000221A605A609A60DA601A617B681B68CC
:1019B000174A934227D1174B5B69164A43F4802399
:1019C0005361144B5B6903F480233B613B69C02383
:1019D0007B611223BB610023FB6103233B62042371
:1019E0007B6207F1140319460B4802F0E9FA094B30
:1019F000DB69084A43F40013D361064BDB6903F447
:101A00000013FB60FB6800BF2837BD4680BD00BFE8
:101A100000540040001002400004004880B58AB025
:101A200000AF786007F1140300221A605A609A60D0
:101A3000DA601A617B681B68174A934228D1174BFA
:101A4000DB69164A43F48043D361144BDB6903F42A
:101A500080433B613B69114B5B69104A43F480232F
:101A600053610E4B5B6903F48023FB60FB684FF40A
:101A700060437B610223BB610023FB6103233B6264
:101A800005237B6207F114031946054802F098FA12
:101A900000BF2837BD4680BD00380040001002401E
:101AA0000004004880B586B000AF78607B681B6892
:101AB0001F4A934214D11F4BDB691E4A43F01003A7
:101AC000D3611C4BDB6903F010037B617B6900224F
:101AD0000021362002F03DFA362002F056FA22E0CC
:101AE0007B681B68144A93420CD1124B9B69114AC4
:101AF00043F4003393610F4B9B6903F400333B6164
:101B00003B6910E07B681B680C4A93420BD1094B80
:101B10009B69084A43F480239361064B9B6903F455
:101B20008023FB60FB6800BF1837BD4680BD00BF47
:101B300000100040001002400044014000480140F5
:101B400080B58AB000AF786007F1140300221A60F4
:101B50005A609A60DA601A617B681B68174A934280
:101B600028D1174BDB69164A43F40033D361144B79
:101B7000DB6903F400333B613B69114B5B69104A3D
:101B800043F4003353610E4B5B6903F40033FB6095
:101B9000FB680C237B610223BB610023FB610323F1
:101BA0003B6207237B6207F1140319464FF0904014
:101BB00002F006FA00BF2837BD4680BD0044004051
:101BC0000010024080B400AFFEE780B400AFFEE733
:101BD00080B400AFFEE780B400AFFEE780B400AF92
:101BE000FEE780B400AF00BFBD465DF8047B7047E0
:101BF00080B400AF00BFBD465DF8047B704780B481
:101C000000AF00BFBD465DF8047B704780B500AFF4
:101C100001F036FC00BF80BD80B582B000AF00236C
:101C20007B6002E07B6801337B607B6847F22F5268
:101C30009342F7DDFFF78AF80346002B14BF012318
:101C40000023DAB2114B1A70FFF78AF80346002B13
:101C500014BF01230023DAB20C4B5A70FFF78AF845
:101C60000346002B14BF01230023DAB2074B9A70FE
:101C7000202002F069FB402002F066FB802002F089
:101C800063FB00BF0837BD4680BD00BF5C04002079
:101C900080B500AF034B01221A70034804F006FF21
:101CA00000BF80BD29050020F002002080B400AFF5
:101CB00001231846BD465DF8047B704780B582B0AD
:101CC00000AF7860396006F029FE034616221A60DC
:101CD0004FF0FF3318460837BD4680BD80B582B04F
:101CE00000AF78604FF0FF317868FFF7E7FFFEE75D
:101CF00080B586B000AFF860B9607A6000237B6180
:101D00000AE0AFF300800146BB685A1CBA60CAB251
:101D10001A707B6901337B617A697B689A42F0DBD8
:101D20007B6818461837BD4680BD80B586B000AFC9
:101D3000F860B9607A6000237B6109E0BB685A1CD7
:101D4000BA601B781846AFF300807B6901337B6172
:101D50007A697B689A42F1DB7B6818461837BD4682
:101D600080BD80B483B000AF78604FF0FF33184679
:101D70000C37BD465DF8047B704780B483B000AF7C
:101D8000786039603B684FF400525A60002318466F
:101D90000C37BD465DF8047B704780B483B000AF5C
:101DA0007860012318460C37BD465DF8047B704708
:101DB00080B485B000AFF860B9607A60002318463F
:101DC0001437BD465DF8047B7047000080B586B0CF
:101DD00000AF7860144A154BD31A7B617B693B6175
:101DE000134B1B68002B02D1114B124A1A60104B87
:101DF0001A687B6813443A699A4207D206F08EFD4E
:101E000003460C221A604FF0FF3309E0084B1B68B1
:101E1000FB60074B1A687B681344054A1360FB6834
:101E200018461837BD4680BD008000200004000021
:101E30002C050020D806002080B400AF064BD3F854
:101E40008830054A43F47003C2F8883000BFBD46AD
:101E50005DF8047B704700BF00ED00E080B58CB0FA
:101E600000AF78607B68002B12D07B68012B18D103
:101E70000EE007F1080307F1100279680B4801F042
:101E80001CFE034687F82F3097F82F30002B07D120
:101E90007968064801F033FF0346002BE9D100E0E2
:101EA00000BF00BF3037BD4680BD00BF100200201C
:101EB00080B588B002AF0346B9607A60FB81FB89C8
:101EC0001B0A9BB21BB203F007031AB250231BB2CA
:101ED00013431BB2FB82FB89DBB23B75FB8A5B00C1
:101EE00099B207F11402642300930123164802F00B
:101EF000DDFA03461A46154B1A70144B1B78002B5B
:101F000002D06FF001031AE0FB8A5B001BB243F0C2
:101F100001031BB299B27B689BB264220092BA683B
:101F2000094802F0B7FB03461A46084B1A70074BE4
:101F30001B78002B02D04FF0FF3300E0002318463F
:101F40001837BD4680BD00BF380200203005002094
:101F500080B582B000AF1023FB71FB1D184600F066
:101F600061F80346002B02D06FF0010311E0BB1DA6
:101F7000184600F03AF80346002B02D04FF0FF332A
:101F800007E0BA79FB799A4202D06FF0030300E0D0
:101F9000002318460837BD4680BD80B584B000AF29
:101FA0000346FB710123FB73FB1D184600F03AF852
:101FB0000346002B02D06FF0010312E007F10E037D
:101FC000184600F012F80346002B02D04FF0FF3302
:101FD00007E0BA7BFB799A4202D06FF0030300E07E
:101FE000002318461037BD4680BD80B584B000AFD1
:101FF00078600023FB6007F10C030421184600F011
:102000003DF80346002B02D04FF0FF3306E0FB7B88
:1020100003F07F03DAB27B681A700023184610378A
:10202000BD4680BD80B584B002AF78607B68002B70
:1020300002D16FF0020319E06B239BB25B0099B2EF
:102040003223009301237A680A4802F02FFA0346EC
:102050001A46094B1A70084B1B78002B02D06FF000
:10206000010303E0642001F02BFA0023184608372F
:10207000BD4680BD380200203105002080B584B007
:1020800002AF78600B467B807B68002B02D07B8898
:10209000002B02D16FF0020319E06B235B001BB22F
:1020A00043F001031BB299B27B88322200927A6816
:1020B000094802F0EFFA03461A46084B1A70074B1C
:1020C0001B78002B02D04FF0FF3300E000231846AE
:1020D0000837BD4680BD00BF380200203105002012
:1020E00080B586B000AF87ED010AD7ED017AF5EE35
:1020F000C07AF1EE10FA0AD47868FEF725FA1BA32D
:10210000D3E90023FEF708FD0346002B02D06FF051
:10211000020325E0144B7B614FF480537B82012343
:102120003B827B8A07EE903AB8EEE77AD7ED017AE8
:1021300067EE276A3B8A07EE903AB8EEE77AD7ED6A
:10214000057A27EE277AC6EE877AFCEEE77A17EE55
:10215000903AFB81FB891946002000F0D3F8034632
:1021600018461837BD4680BD6F120340FCA9F1D256
:102170004D62004090B589B002AF04460846114652
:102180001A462346FB710346BB710B467B7113460F
:102190003B71FB79002B05D0FB79012B02D06FF04E
:1021A000020389E0BB79002B08D0BB79022B05D054
:1021B000BB79032B02D06FF002037DE07B79002B0B
:1021C0000BD07B79012B08D07B79022B05D07B7952
:1021D000032B02D06FF002036EE03B79002B05D099
:1021E0003B79012B02D06FF0020365E03B8DB3F524
:1021F000805F02D36FF002035EE000231B021AB27D
:1022000061235B001BB213431BB2BB82FB79002B23
:1022100002D16023FB7501E04023FB753B8DC3F3C6
:102220000B033B853B8D1B0A9BB2DBB23B743B8DA2
:10223000DBB27B74BB79DB005BB203F018035AB2EC
:1022400097F9173013435AB27B795B005BB203F006
:1022500006035BB213435AB297F9043003F001034B
:102260005BB213435BB2DBB23B733B7C1B015AB2E4
:102270007B7C1B09DBB25BB213435BB2DBB27B73CB
:102280007B7C1B01DBB2BB7307F10C02B98A6423B0
:10229000009303230A4802F009F903461A46094B42
:1022A0001A70084B1B78002B02D06FF0010303E07B
:1022B000322001F005F9002318461C37BD4690BDB9
:1022C000380200203205002090B585B002AF0446E8
:1022D000084611461A462346FB710346BB710B465E
:1022E0007B7113467B807879BA79F9797B88009382
:1022F00003460020FFF73EFF034618460C37BD4655
:1023000090BD000080B586B002AF03460A46FB715F
:102310001346BB80FB79002B0BD0FB79012B08D037
:10232000FB79022B05D0FB79032B02D06FF002035F
:1023300044E0BB88B3F5805F02D36FF002033DE059
:1023400000231B021AB261235B001BB213431BB2B2
:10235000FB81BB88C3F30B03BB80BB881B0A9BB20A
:10236000DBB23B73BB88DBB27B73FB791B015BB2D7
:1023700003F030035AB23B7B5BB203F00F035BB256
:1023800013435BB2DBB23B727B7B7B7207F10802CB
:10239000F9896423009302230A4802F087F8034670
:1023A0001A46094B1A70084B1B78002B02D06FF0AD
:1023B000010303E0322001F083F8002318461037B0
:1023C000BD4680BD380200203205002080B586B0B1
:1023D00002AF78607B68002B02D16FF002031FE030
:1023E00000231B021AB261235B001BB213431BB212
:1023F000FB81FB8943F0010399B264230093062318
:102400007A68094802F046F903461A46074B1A70E3
:10241000064B1B78002B02D04FF0FF3300E0002367
:1024200018461037BD4680BD380200203205002016
:1024300080B582B000AF0346FB80A84B4FF48062AA
:102440001A60A64B08221A61A44B00229A60A34B83
:102450000022DA60A24B00225A61A14B01229A614C
:102460009F4B0022DA61FB885B011A4643F6E0735A
:1024700013409B4A13609A4B00225A60984B0022EB
:102480009A60974B0022DA60954B00221A61944BB8
:1024900001221A62934B01225A61924B01229A61E6
:1024A000904B0022DA61FB885A0143F6E073134037
:1024B00043F480431A468B4B1A608A4B4FF4804298
:1024C0005A60884B4FF480429A60864B4FF48042AA
:1024D000DA60844B01221A61824B01221A62802247
:1024E0000021814806F0C7F9804A7F217E4806F026
:1024F0002BF97F4B1B7880227B491846FEF704FDA1
:1025000077497C4801F0FBF803461A467A4B1A706B
:10251000794B1B78002B11D080220021724806F0E5
:10252000AAF9764A7F21704806F00EF9704B1B78A5
:1025300080226D491846FEF7E7FC10E0802200215A
:10254000694806F098F96E4A7F21674806F0FCF862
:10255000674B1B78802264491846FEF7D5FC614919
:10256000644801F0CCF803461A46634B1A70624B7C
:102570001B78002B11D0802200215B4806F07BF9EC
:10258000604A7F21584806F0DFF8594B1B788022BB
:1025900055491846FEF7B8FC10E080220021524849
:1025A00006F069F9584A7F214F4806F0CDF8504BA4
:1025B0001B7880224C491846FEF7A6FC02214D48A4
:1025C00001F0C5FB03461A464B4B1A704A4B1B7869
:1025D000002B11D080220021434806F04CF94B4AD1
:1025E0007F21414806F0B0F8414B1B7880223E49DC
:1025F0001846FEF789FC10E0802200213A4806F0D8
:102600003AF9434A7F21384806F09EF8384B1B7848
:10261000802235491846FEF777FC1021354801F035
:1026200096FB03461A46344B1A70334B1B78002B2B
:1026300011D0802200212C4806F01DF9354A7F2157
:10264000294806F081F82A4B1B7880222649184633
:10265000FEF75AFC10E080220021234806F00BF917
:102660002D4A7F21204806F06FF8214B1B788022ED
:102670001D491846FEF748FC1E4801F00AF90346BA
:102680001A461D4B1A701C4B1B78002B11D0802250
:102690000021154806F0EFF8204A7F21124806F085
:1026A00053F8134B1B7880220F491846FEF72CFC79
:1026B00010E0802200210C4806F0DDF8184A7F2146
:1026C000094806F041F80A4B1B7880220649184653
:1026D000FEF71AFC00BF0837BD4680BDEC040020A1
:1026E000340500205C0500206804002050C3000869
:1026F0001B000020100200202805002074C30008E1
:10270000ACC30008C8C30008F4C3000810C4000824
:1027100048C4000878C40008B0C40008E0C4000839
:1027200008C5000880B500AF80220021214806F0CE
:10273000A2F8214A7F211F4806F006F81F4B1B789C
:1027400080221C491846FEF7DFFB80220021194831
:1027500006F091F81A4A7F21164805F0F5FF174B4D
:102760001B78802213491846FEF7CEFB80220021F9
:10277000104806F080F8134A7F210E4805F0E4FF68
:102780000E4B1B7880220B491846FEF7BDFB8022BA
:102790000021084806F06FF80B4A7F21054805F034
:1027A000D3FF064B1B78802202491846FEF7ACFB8C
:1027B00000BF80BD6804002024C500081B00002065
:1027C00070C50008B8C5000800C6000880B500AF95
:1027D000802200212E4806F04EF82E4A7F212C48F8
:1027E00005F0B2FF2C4B1B78802229491846FEF7D2
:1027F0008BFB80220021264806F03DF8274B9B8862
:10280000274A7F21224805F09FFF234B1B78802217
:102810001F491846FEF778FB802200211C4806F06D
:102820002AF81E4B1B891F4A7F21194805F08CFF8F
:10283000194B1B78802216491846FEF765FB80224B
:102840000021134806F017F8144B9B79164A7F2194
:102850000F4805F079FF104B1B7880220C49184671
:10286000FEF752FB80220021094806F004F80B4BCA
:102870005B890E4A7F21064805F066FF064B1B78F0
:10288000802203491846FEF73FFB00BF80BD00BF12
:102890006804002048C600081B0000205C040020DB
:1028A0006CC600088CC60008A8C60008C0C6000890
:1028B00080B584B000AF80220021744805F0DBFFB2
:1028C000734A7F21714805F03FFF724B1B788022CD
:1028D0006E491846FEF718FB0123FB730023BB73F8
:1028E00000237B600023BB60A0233B716A4B1A89E5
:1028F0003B1D013319461046FEF7FCF9664B9A88DA
:102900003B1D033319461046FEF7F4F9624B9B79E1
:102910007B72614B1B8943F4C0639BB21A465F4BC9
:102920001A603A1D5E4B5D495E4800F0F6FF0346B3
:102930001A465D4B1A705C4B1B78002B13D000239A
:10294000FB7380220021514805F095FF574A7F21F3
:102950004E4805F0F9FE4F4B1B7880224B49184634
:10296000FEF7D2FA10E080220021484805F083FFEC
:102970004F4A7F21454805F0E7FE464B1B788022F1
:1029800042491846FEF7C0FA3B1D082200211846AE
:1029900005F071FF474B1B6800225A62454803F05F
:1029A000A1FF22E001213F4801F0A9F90346002BD5
:1029B00010D03B1D404A01213A4801F07EF8034601
:1029C0001A46394B1A70384B1B78002B17D000234E
:1029D000FB7314E0374B1B685B6A41F28832934209
:1029E00003D90123BB730023FB73FB7B002B07D0B0
:1029F000BB7B83F00103DBB2002BD3D100E000BF2F
:102A00002C4803F0C9FF80220021204805F033FF45
:102A1000284B1B685B6A294A7F211C4805F094FEFD
:102A20001C4B1B78802219491846FEF76DFA214B82
:102A30001B6800225A62FB7B002B11D080220021F0
:102A4000124805F018FF1E4A7F21104805F07CFE51
:102A5000104B1B7880220D491846FEF755FA10E0FE
:102A600080220021094805F006FF164A7F21074809
:102A700005F06AFE074B1B78802204491846FEF7D2
:102A800043FA00BF1037BD4680BD00BF6804002078
:102A9000E0C600081B0000205C040020EC040020BD
:102AA000E8040020100200202805002004C70008C8
:102AB00034C7000888030020040500204CC7000824
:102AC0007CC70008A8C7000880B584B000AF80228A
:102AD00000212C4805F0CFFE2B4A7F21294805F024
:102AE00033FE2A4B1B78802226491846FEF70CFA43
:102AF0000123FB73264A3B1D92E8030083E8030091
:102B0000244B1B8943F4C0639BB21A46224B1A60C4
:102B10003A1D224B2049224800F0FFFE03461A4688
:102B2000204B1A701F4B1B78002B01D00023FB7326
:102B3000FB7B002B11D080220021124805F09BFE68
:102B4000194A7F210F4805F0FFFD104B1B788022AA
:102B50000C491846FEF7D8F910E0802200210948F8
:102B600005F089FE114A7F21064805F0EDFD074B6F
:102B70001B78802203491846FEF7C6F900BF1037BC
:102B8000BD4680BD68040020D0C700081B0000209F
:102B900040C800085C040020EC040020E804002089
:102BA0001002002028050020F0C7000818C80008FF
:102BB00080B400AF00BFBD465DF8047B70470000E5
:102BC00080B586B000AF0123FB7580220021A648A6
:102BD00005F051FEA54A7F21A34805F0B5FDA44BA1
:102BE0001B788022A0491846FEF78EF9A14803F011
:102BF000FBFE03461A46A04B1A709F4B1B78002B16
:102C000011D180220021984805F035FE9B4A7F2192
:102C1000954805F099FD964B1B78802292491846FD
:102C2000FEF772F912E0802200218F4805F023FEA2
:102C3000934A7F218C4805F087FD8D4B1B788022BD
:102C400089491846FEF760F90023FB750020FEF75E
:102C50009BF80020FEF7AAF80020FEF7B9F8002044
:102C6000FEF7C8F80020FEF7D7F80020FEF7E6F8D8
:102C70000020FEF7F5F80020FEF704F90120FEF72A
:102C800013F90120FEF722F980220021764805F091
:102C9000F2FD7C4A7F21744805F056FD744B1B7889
:102CA000802271491846FEF72FF9802200216E48D4
:102CB00005F0E1FD744A7F216B4805F045FD6C4B42
:102CC0001B78802268491846FEF71EF9FFF740F985
:102CD0000346002B11D180220021634805F0CBFD73
:102CE0006A4A7F21604805F02FFD614B1B788022E6
:102CF0005D491846FEF708F912E0802200215A4883
:102D000005F0B9FD624A7F21574805F01DFD584B7B
:102D10001B78802254491846FEF7F6F80023FB750D
:102D200008237B757B7D1846FFF737F90346002B98
:102D300011D1802200214C4805F09DFD554A7F218C
:102D4000494805F001FD4A4B1B7880224649184648
:102D5000FEF7DAF812E080220021434805F08BFDEF
:102D60004D4A7F21404805F0EFFC414B1B78802203
:102D70003D491846FEF7C8F80023FB758022002164
:102D8000394805F078FD454A7F21374805F0DCFCDD
:102D9000374B1B78802234491846FEF7B5F80023DC
:102DA000BB75FF23FB6000233B8207F10C03184631
:102DB000FFF70CFB0346002B7AD1FB7B03F0DE030D
:102DC000DC2B11D180220021274805F054FD344A24
:102DD0007F21254805F0B8FC254B1B78802222492D
:102DE0001846FEF791F813E0802200211E4805F0F6
:102DF00042FDFB7B2B4A7F211B4805F0A5FC1C4BA9
:102E00001B78802218491846FEF77EF80123BB750F
:102E10003B7B03F0DE03D82B11D180220021124826
:102E200005F029FD204A7F210F4805F08DFC104B4D
:102E30001B7880220C491846FEF766F84BE080228A
:102E40000021094805F017FD3B7B184A7F21064801
:102E500005F07AFC064B1B78802203491846FEF7E2
:102E600053F80123BB7536E06804002048C8000809
:102E70001B000020F00200202805002074C8000874
:102E800094C80008BCC80008D8C80008F8C80008E2
:102E900010C9000828C9000840C9000858C900081E
:102EA0007CC9000898C90008C0C90008E8C9000822
:102EB000802200219A4805F0DEFC9A4A7F2198483A
:102EC00005F042FC984B1B78802295491846FEF786
:102ED0001BF80023FB75BB7D002B1BD000230022B9
:102EE00002210320FFF7F0F90346002B12D08022C5
:102EF00000218B4805F0BFFC8C4A7F21884805F0F3
:102F000023FC894B1B78802285491846FDF7FCFF7E
:102F10000023FB75BB7D002B78D007F10C03082242
:102F2000FF21184605F0A7FC07F10C031846FFF730
:102F30004DFA0346002B56D1FB7B03F0DE03DC2B5E
:102F400011D180220021764805F095FC784A7F2136
:102F5000734805F0F9FB744B1B78802270491846C2
:102F6000FDF7D2FF13E0802200216D4805F083FCBD
:102F7000FB7B704A7F216A4805F0E6FB6A4B1B78B1
:102F8000802267491846FDF7BFFF0023FB753B7B96
:102F900003F0DE03D82B11D180220021604805F018
:102FA0006AFC654A7F215E4805F0CEFB5E4B1B78CC
:102FB00080225B491846FDF7A7FF27E08022002109
:102FC000574805F058FC3B7B5C4A7F21544805F08C
:102FD000BBFB554B1B78802251491846FDF794FFE7
:102FE0000023FB7512E0802200214D4805F043FCD0
:102FF000534A7F214A4805F0A7FB4B4B1B788022A0
:1030000047491846FDF780FF0023FB753B7B5BB209
:10301000002B11DA80220021414805F02CFC494A9E
:103020007F213F4805F090FB3F4B1B7880223C49B5
:103030001846FDF769FF12E080220021384805F0AC
:103040001AFC414A7F21364805F07EFB364B1B783F
:10305000802233491846FDF757FF0023FB759FED8B
:103060003B0AFFF73DF80346002B11D180220021D7
:103070002B4805F000FC364A7F21294805F064FB07
:10308000294B1B78802226491846FDF73DFF12E0A8
:1030900080220021224805F0EEFB2E4A7F212048A5
:1030A00005F052FB204B1B7880221D491846FDF786
:1030B0002BFF0023FB7580220021194805F0DBFB64
:1030C000254A7F21164805F03FFB174B1B788022CD
:1030D00013491846FDF718FF00237B6007F108032A
:1030E00000210A461A800A469A703B1D072219469B
:1030F0000020FEF7DDFE0346002B31D180220021A7
:10310000074805F0B8FB154A7F21054805F01CFB70
:10311000054B1B78802202491846FDF7F5FE32E088
:103120006804002018CA00081B0000204CCA0008D0
:1031300070CA000898CA0008C8CA0008F8CA00087F
:1031400030CB000870CB000894CB000800000000D2
:10315000B4CB0008E0CB000808CC000838CC00084D
:1031600080220021844805F086FB844A7F21824822
:1031700005F0EAFA824B1B7880227F491846FDF75A
:10318000C3FE0023FB757F4B00221A707D4B00228B
:103190005A707C4B00229A703B1D1846FDF7C1FD0A
:1031A00003461A46774B9A80BA79764B9A713B1D43
:1031B00003331846FDF7B5FD03461A46714B1A81D5
:1031C0003B1D05331846FDF7ACFD03461A466D4B13
:1031D0005A816C4B9B884FF6FF7293420FD0694B1C
:1031E0009B79FF2B0BD0674B1B894FF6FF729342E5
:1031F00005D0644B5B894FF6FF7293425FD180220A
:1032000000215D4805F037FB5F4A7F215A4805F0F1
:103210009BFA5B4B1B78802257491846FDF774FEDA
:1032200080220021544805F026FB564B9B88574AC4
:103230007F21514805F088FA514B1B7880224E4976
:103240001846FDF761FE802200214B4805F013FB74
:103250004C4B1B894E4A7F21474805F075FA484B75
:103260001B78802244491846FDF74EFE802200213B
:10327000414805F000FB434B9B79464A7F213E487D
:1032800005F062FA3E4B1B7880223B491846FDF759
:103290003BFE80220021384805F0EDFA394B5B896E
:1032A0003D4A7F21344805F04FFA354B1B78802288
:1032B00031491846FDF728FE0023FB7510E08022F7
:1032C00000212D4805F0D7FA344A7F212A4805F01D
:1032D0003BFA2B4B1B78802227491846FDF714FE3A
:1032E000284B9B790F2B0CD90120FDF7A7FD01205E
:1032F000FDF792FD0120FDF77DFD0120FDF768FD42
:1033000035E0204B9B79DB08DBB203F00103002B97
:1033100014BF01230023DBB21846FDF78FFD194BC4
:103320009B799B08DBB203F00103002B14BF012340
:103330000023DBB21846FDF76FFD124B9B795B084B
:10334000DBB203F00103002B14BF01230023DBB227
:103350001846FDF74FFD0B4B9B7903F00103002B43
:1033600014BF01230023DBB21846FDF731FDFB7DBE
:1033700018461837BD4680BD680400206CCC000894
:103380001B0000205C040020A0CC0008DCCC00085E
:10339000F8CC000814CD00082CCD000848CD00085A
:1033A000DFF834D0FEF748FD0C480D490D4A0023E4
:1033B00002E0D458C4500433C4188C42F9D30A4AEA
:1033C0000A4C002301E013600432A242FBD305F053
:1033D000ABFAFDF7F5FDFEE70080002000000020BD
:1033E000F4010020D0D10008F4010020D406002010
:1033F000FEE7000080B500AF084B1B68074A43F0AA
:1034000010031360032000F099FD0F2000F008F86E
:10341000FEF758FA0023184680BD00BF0020024086
:1034200080B582B000AF7860124B1A68124B1B78DF
:1034300019464FF47A73B3FBF1F3B2FBF3F318467A
:1034400000F0B1FD0346002B01D001230EE07B68A4
:103450000F2B0AD8002279684FF0FF3000F079FD79
:10346000064A7B681360002300E0012318460837F2
:10347000BD4680BD20000020280000202400002040
:1034800080B400AF064B1B781A46064B1B681344EA
:10349000044A136000BFBD465DF8047B704700BF5F
:1034A000280000208405002080B400AF034B1B6877
:1034B0001846BD465DF8047B704700BF84050020B8
:1034C00080B584B000AF7860FFF7EEFFB8607B682E
:1034D000FB60FB68B3F1FF3F05D00A4B1B781A462F
:1034E000FB681344FB6000BFFFF7DEFF0246BB68CA
:1034F000D31AFA689A42F7D800BF00BF1037BD460A
:1035000080BD00BF2800002080B584B000AF786087
:103510007B68002B01D10123EDE07B6893F820301C
:10352000DBB2002B02D17868FEF7F0F97B681B68EC
:103530001A687B681B6842F001021A60FFF7B4FF4B
:10354000F86012E0FFF7B0FF0246FB68D31A0A2BBF
:103550000BD97B685B6A43F400327B685A627B68F4
:10356000052283F820200123C5E07B681B685B6887
:1035700003F00103002BE5D07B681B681A687B68A9
:103580001B6822F002021A60FFF78EFFF86012E05B
:10359000FFF78AFF0246FB68D31A0A2B0BD97B6818
:1035A0005B6A43F400327B685A627B68052283F8C9
:1035B000202001239FE07B681B685B6803F0020307
:1035C000002BE5D17B681B7E012B08D17B681B6833
:1035D0001A687B681B6842F080021A6007E07B680B
:1035E0001B681A687B681B6822F080021A607B687F
:1035F0005B7E012B08D17B681B681A687B681B689F
:1036000042F040021A6007E07B681B681A687B681A
:103610001B6822F040021A607B689B7E012B08D158
:103620007B681B681A687B681B6842F020021A607E
:1036300007E07B681B681A687B681B6822F0200221
:103640001A607B68DB7E012B08D17B681B681A68D7
:103650007B681B6822F010021A6007E07B681B6819
:103660001A687B681B6842F010021A607B681B7F37
:10367000012B08D17B681B681A687B681B6842F0C5
:1036800008021A6007E07B681B681A687B681B6881
:1036900022F008021A607B685B7F012B08D17B68EF
:1036A0001B681A687B681B6842F004021A6007E016
:1036B0007B681B681A687B681B6822F004021A602A
:1036C0007B689A687B68DB681A437B681B691A43CE
:1036D0007B685B6942EA03017B685B685A1E7B6812
:1036E0001B680A43DA617B6800225A627B68012208
:1036F00083F82020002318461037BD4680BD80B4D3
:1037000087B000AF786039607B681B687B617B683D
:1037100093F82030FB74FB7C012B03D0FB7C022B45
:1037200040F0AA807B69D3F8003243F001027B6944
:10373000C3F800223B685B6903F01F03012202FA11
:1037400003F3FB607B69D3F81C22FB68DB431A4060
:103750007B69C3F81C223B68DB69002B23D17B69A2
:10376000D3F80C22FB68DB431A407B69C3F80C22B8
:103770003B68DB6819043B685B689BB23A68526936
:1037800019437B69483243F832103B689B6819043F
:103790003B681B689AB23B685B690A4379694833A6
:1037A000DB000B445A603B68DB69012B22D17B694B
:1037B000D3F80C22FB681A437B69C3F80C223B68E0
:1037C0001B6819043B685B689BB23A6852691943ED
:1037D0007B69483243F832103B689B6819043B68A8
:1037E000DB689AB23B685B690A4379694833DB005E
:1037F0000B445A603B689B69002B09D17B69D3F865
:103800000422FB68DB431A407B69C3F8042207E00B
:103810007B69D3F80422FB681A437B69C3F804224E
:103820003B681B69002B09D17B69D3F81422FB6824
:10383000DB431A407B69C3F8142207E07B69D3F8A5
:103840001422FB681A437B69C3F814223B681B6A85
:10385000012B07D17B69D3F81C22FB681A437B69D3
:10386000C3F81C227B69D3F8003223F001027B6984
:10387000C3F80022002306E07B685B6A43F48022E1
:103880007B685A62012318461C37BD465DF8047BED
:10389000704780B584B000AF78607B6893F82030C3
:1038A000DBB2012B2ED17B68022283F820207B68BB
:1038B0001B681A687B681B6822F001021A60FFF718
:1038C000F3FDF86012E0FFF7EFFD0246FB68D31A44
:1038D0000A2B0BD97B685B6A43F400327B685A621F
:1038E0007B68052283F82020012312E07B681B6897
:1038F0005B6803F00103002BE5D17B6800225A626C
:10390000002306E07B685B6A43F400227B685A620E
:10391000012318461037BD4680BD80B489B000AF82
:10392000F860B9607A603B60FB6893F82030FB7701
:10393000FB681B689B68BB61FB7F012B03D0FB7F8F
:10394000022B40F0AD80BB6903F08063002B0AD1ED
:10395000BB6903F00063002B05D1BB6903F0805302
:10396000002B00F09580BB691B0E03F003037B6105
:1039700001227B699A403B681A60BB689B68002BF8
:103980000DD1BB681B685A05BB68DB68F96809681C
:103990001A437B6918331B010B441A600FE0BB68A4
:1039A0005B68DA00BB689B681A43BB68DB68F96830
:1039B00009681A437B6918331B010B441A60FB68C2
:1039C0001968BB681A697B6918331B010B440433FF
:1039D0001A60BB681B7D012B11D1FB681A687B69DB
:1039E00018331B01134404331B68FA68116843F44D
:1039F00080727B6918331B010B4404331A607B68A7
:103A000007331B781A067B6806331B781B041A439E
:103A10007B6805331B781B0213437A6804321278E3
:103A20001046FA68116843EA00027B691B010B44E7
:103A300003F5C6731A607B6803331B781A067B682C
:103A400002331B781B041A437B6801331B781B026B
:103A500013437A6812781046FA68116843EA000244
:103A60007B691B010B4403F5C4731A60FB681A6879
:103A70007B6918331B0113441B68FA68116843F013
:103A800001027B6918331B010B441A6000230EE00E
:103A9000FB685B6A43F40012FB685A62012306E08C
:103AA000FB685B6A43F48022FB685A620123184674
:103AB0002437BD465DF8047B704780B487B000AF03
:103AC000F860B9607A603B60FB6893F82030FB7562
:103AD000FB7D012B03D0FB7D022B40F00381BB68F3
:103AE000002B0ED1FB681B68DB6803F00303002B7F
:103AF00016D1FB685B6A43F40012FB685A6201232B
:103B0000F7E0FB681B681B6903F00303002B07D178
:103B1000FB685B6A43F40012FB685A620123E8E029
:103B2000FB681A68BB681B331B0113441B6803F056
:103B300004027B689A607B689B68002B0CD1FB6851
:103B40001A68BB681B331B0113441B685B0DC3F36E
:103B50000A027B681A600BE0FB681A68BB681B33BB
:103B60001B0113441B68DB0823F060427B685A602A
:103B7000FB681A68BB681B331B0113441B6803F006
:103B800002027B68DA60FB681A68BB681B331B01A2
:103B9000134404331B6803F00803002B03D07B6835
:103BA00008221A610BE0FB681A68BB681B331B0113
:103BB000134404331B6803F00F027B681A61FB682F
:103BC0001A68BB681B331B01134404331B681B0AB0
:103BD000DAB27B689A61FB681A68BB681B331B0109
:103BE000134404331B681B0C9AB27B685A61FB6850
:103BF0001A68BB681B01134403F5DC731B68DAB257
:103C00003B681A70FB681A68BB681B01134403F514
:103C1000DC731B681A0A3B680133D2B21A70FB6866
:103C20001A68BB681B01134403F5DC731B681A0C8C
:103C30003B680233D2B21A70FB681A68BB681B017A
:103C4000134403F5DC731B681A0E3B680333D2B2CE
:103C50001A70FB681A68BB681B01134403F5DE7316
:103C60001A683B680433D2B21A70FB681A68BB68E2
:103C70001B01134403F5DE731B681A0A3B68053306
:103C8000D2B21A70FB681A68BB681B01134403F5B3
:103C9000DE731B681A0C3B680633D2B21A70FB68DD
:103CA0001A68BB681B01134403F5DE731B681A0E08
:103CB0003B680733D2B21A70BB68002B08D1FB688F
:103CC0001B68DA68FB681B6842F02002DA6007E0D4
:103CD000FB681B681A69FB681B6842F020021A61C6
:103CE000002306E0FB685B6A43F48022FB685A62AB
:103CF000012318461C37BD465DF8047B704780B42D
:103D000085B000AF786039600023FB607B6893F872
:103D10002030FB72FB7A012B02D0FB7A022B0FD1F1
:103D20003B68002B06D17B681B68DB6803F003034C
:103D3000FB6005E07B681B681B6903F00303FB6005
:103D4000FB6818461437BD465DF8047B704780B4A5
:103D500085B000AF786039607B6893F82030FB73E2
:103D6000FB7B012B02D0FB7B022B09D17B681B68FC
:103D700059697B681B683A680A435A61002306E068
:103D80007B685B6A43F480227B685A620123184691
:103D90001437BD465DF8047B7047000080B485B0E1
:103DA00000AF78607B6803F00703FB600C4BDB68B7
:103DB000BB60BA684FF6FF031340BB60FB681A0292
:103DC000BB68134343F0BF6343F40033BB60044A52
:103DD000BB68D36000BF1437BD465DF8047B7047F5
:103DE00000ED00E080B400AF044BDB681B0A03F079
:103DF00007031846BD465DF8047B704700ED00E000
:103E000080B483B000AF0346FB7197F90730002BF5
:103E10000BDBFB7903F01F02074997F907305B09B9
:103E2000012000FA02F241F8232000BF0C37BD4602
:103E30005DF8047B704700BF00E100E080B483B010
:103E400000AF03463960FB7197F90730002B0ADB9E
:103E50003B68DAB20C4997F907301201D2B20B4431
:103E600083F800230AE03B68DAB20849FB7903F0E3
:103E70000F03043B1201D2B20B441A7600BF0C3779
:103E8000BD465DF8047B704700E100E000ED00E016
:103E900080B489B000AFF860B9607A60FB6803F065
:103EA0000703FB61FB69C3F10703042B28BF04234D
:103EB000BB61FB690433062B02D9FB69033B00E0BD
:103EC00000237B614FF0FF32BB6902FA03F3DA4350
:103ED000BB681A407B699A404FF0FF317B6901FA59
:103EE00003F3D9437B680B40134318462437BD4680
:103EF0005DF8047B7047000080B582B000AF786049
:103F00007B68013BB3F1807F01D301230FE00A4AB4
:103F10007B68013B53600F214FF0FF30FFF78EFFAE
:103F2000054B00229A60044B07221A6000231846B2
:103F30000837BD4680BD00BF10E000E080B582B00C
:103F400000AF78607868FFF729FF00BF0837BD46EB
:103F500080BD80B586B000AF0346B9607A60FB7360
:103F600000237B61FFF73EFF78617A68B968786962
:103F7000FFF78EFF024697F90F3011461846FFF7FC
:103F80005DFF00BF1837BD4680BD80B582B000AF71
:103F90000346FB7197F907301846FFF731FF00BF62
:103FA0000837BD4680BD80B582B000AF78607868C4
:103FB000FFF7A2FF034618460837BD4680BD000044
:103FC00080B487B000AF7860396000237B6154E132
:103FD0003B681A6801217B6901FA03F31340FB6017
:103FE000FB68002B00F046813B685B6803F003032D
:103FF000012B05D03B685B6803F00303022B30D133
:104000007B689B683B617B695B00032202FA03F3D8
:10401000DB433A6913403B613B68DA687B695B00CC
:1040200002FA03F33A6913433B617B683A699A6089
:104030007B685B683B6101227B6902FA03F3DB4327
:104040003A6913403B613B685B681B0903F001025E
:104050007B6902FA03F33A6913433B617B683A696F
:104060005A603B685B6803F00303032B17D07B683F
:10407000DB683B617B695B00032202FA03F3DB43ED
:104080003A6913403B613B689A687B695B0002FABE
:1040900003F33A6913433B617B683A69DA603B6832
:1040A0005B6803F00303022B23D17B69DA087B688A
:1040B000083253F822303B617B6903F007039B0011
:1040C0000F2202FA03F3DB433A6913403B613B687A
:1040D0001A697B6903F007039B0002FA03F33A694C
:1040E00013433B617B69DA087B680832396943F81E
:1040F00022107B681B683B617B695B00032202FA2C
:1041000003F3DB433A6913403B613B685B6803F0B0
:1041100003027B695B0002FA03F33A6913433B61D4
:104120007B683A691A603B685B6803F44033002B94
:1041300000F0A080584B9B69574A43F001039361FC
:10414000554B9B6903F00103BB60BB68534A7B6915
:104150009B08023352F823303B617B6903F0030371
:104160009B000F2202FA03F3DB433A6913403B61E1
:104170007B68B3F1904F19D07B68494A934213D0C2
:104180007B68484A93420DD07B68474A934207D0E8
:104190007B68464A934201D1042308E0052306E0E8
:1041A000032304E0022302E0012300E000237A69F4
:1041B00002F00302920093403A6913433B6137498E
:1041C0007B699B0802333A6941F82320384B9B688E
:1041D0003B61FB68DB433A6913403B613B685B68CA
:1041E00003F48013002B03D03A69FB6813433B614F
:1041F0002F4A3B6993602E4BDB683B61FB68DB43D6
:104200003A6913403B613B685B6803F40013002B81
:1042100003D03A69FB6813433B61254A3B69D3608D
:10422000234B5B683B61FB68DB433A6913403B61AE
:104230003B685B6803F40033002B03D03A69FB68EA
:1042400013433B611A4A3B695360194B1B683B613E
:10425000FB68DB433A6913403B613B685B6803F4EE
:104260008033002B03D03A69FB6813433B61104A4B
:104270003B6913607B6901337B613B681A687B692A
:1042800022FA03F3002B7FF4A3AE00BF00BF1C375C
:10429000BD465DF8047B70470010024000000140FD
:1042A0000004004800080048000C004800100048C6
:1042B0000004014080B485B000AF78600B467B807D
:1042C0007B681A697B881340002B02D00123FB73A3
:1042D00001E00023FB73FB7B18461437BD465DF8F5
:1042E000047B704780B483B000AF78600B467B805E
:1042F00013467B707B78002B03D07A887B689A61A9
:1043000002E07A887B689A6200BF0C37BD465DF890
:10431000047B704780B485B000AF78600B467B802B
:104320007B685B69FB607A88FB6813401A04FB6852
:10433000D9437B880B401A437B689A6100BF1437CE
:10434000BD465DF8047B704780B582B000AF034680
:10435000FB80084B5A69FB881340002B06D0054AA6
:10436000FB885361FB88184600F006F800BF083749
:10437000BD4680BD0004014080B483B000AF034659
:10438000FB8000BF0C37BD465DF8047B704780B5ED
:1043900082B000AF78607B68002B01D1012381E0FF
:1043A0007B6893F84130DBB2002B06D17B6800229A
:1043B00083F840207868FDF7EDFA7B68242283F8C3
:1043C00041207B681B681A687B681B6822F0010229
:1043D0001A607B685A687B681B6822F070621A61F9
:1043E0007B681B689A687B681B6822F400429A60AD
:1043F0007B68DB68012B07D17B689A687B681B6848
:1044000042F400429A6006E07B689A687B681B6809
:1044100042F404429A607B68DB68022B04D17B681B
:104420001B684FF400625A607B681B685B687A689F
:10443000126843F0007343F4004353607B681B68C9
:10444000DA687B681B6822F40042DA607B681A69CC
:104450007B685B6942EA03017B689B691A027B689F
:104460001B680A43DA607B68D9697B681A6A7B68D3
:104470001B680A431A607B681B681A687B681B68A4
:1044800042F001021A607B6800225A647B68202295
:1044900083F841207B6800221A637B68002283F83E
:1044A0004220002318460837BD4680BD80B588B03D
:1044B00002AFF8607A601A460B467B8113463B8157
:1044C000FB6893F84130DBB2202B40F0DA80FB68C8
:1044D00093F84030012B01D10223D3E0FB68012285
:1044E00083F84020FEF7E0FF78617B690093192391
:1044F00001224FF40041F86800F0E6F90346002B72
:1045000001D00123BEE0FB68212283F84120FB6833
:10451000102283F84220FB6800225A64FB687A6804
:104520005A62FB683A895A85FB6800225A63FB6825
:104530005B8D9BB2FF2B0ED9FB68FF221A85FB68AF
:104540001B8DDAB27989514B00934FF08073F86874
:1045500000F0F6FB6CE0FB685B8D9AB2FB681A8595
:10456000FB681B8DDAB27989484B00934FF00073DA
:10457000F86800F0E5FB5BE07A69396AF86800F0FA
:10458000F2F90346002B01D001237BE0FB685B6A54
:104590001A78FB681B689A62FB685B6A5A1CFB68A6
:1045A0005A62FB685B8D9BB2013B9AB2FB685A85ED
:1045B000FB681B8D013B9AB2FB681A85FB685B8D1B
:1045C0009BB2002B34D0FB681B8D002B30D17B6954
:1045D00000933B6A00228021F86800F075F90346D9
:1045E000002B01D001234DE0FB685B8D9BB2FF2BBC
:1045F0000ED9FB68FF221A85FB681B8DDAB2798918
:10460000002300934FF08073F86800F099FB0FE0EF
:10461000FB685B8D9AB2FB681A85FB681B8DDAB26A
:104620007989002300934FF00073F86800F088FB4D
:10463000FB685B8D9BB2002B9ED17A69396AF86862
:1046400000F0D8F90346002B01D001231AE0FB68E3
:104650001B682022DA61FB681B685968FB681A68CE
:104660000B4B0B405360FB68202283F84120FB6812
:10467000002283F84220FB68002283F840200023B8
:1046800000E0022318461837BD4680BD0020008098
:1046900000E800FE80B588B002AFF8607A601A4684
:1046A0000B467B8113463B81FB6893F84130DBB2BC
:1046B000202B40F0DB80FB6893F84030012B01D1C8
:1046C0000223D4E0FB68012283F84020FEF7ECFED1
:1046D00078617B690093192301224FF40041F86847
:1046E00000F0F2F80346002B01D00123BFE0FB6885
:1046F000222283F84120FB68102283F84220FB68C5
:1047000000225A64FB687A685A62FB683A895A85C3
:10471000FB6800225A63FB685B8D9BB2FF2B0ED9AE
:10472000FB68FF221A85FB681B8DDAB27989524B30
:1047300000934FF08073F86800F002FB6DE0FB68B7
:104740005B8D9AB2FB681A85FB681B8DDAB279899A
:10475000494B00934FF00073F86800F0F1FA5CE009
:104760007A69396AF86800F089F90346002B01D0AC
:1047700001237CE0FB681B685A6AFB685B6AD2B263
:104780001A70FB685B6A5A1CFB685A62FB681B8DD7
:10479000013B9AB2FB681A85FB685B8D9BB2013BBB
:1047A0009AB2FB685A85FB685B8D9BB2002B34D0B4
:1047B000FB681B8D002B30D17B6900933B6A002284
:1047C0008021F86800F080F80346002B01D0012317
:1047D0004DE0FB685B8D9BB2FF2B0ED9FB68FF227F
:1047E0001A85FB681B8DDAB27989002300934FF09C
:1047F0008073F86800F0A4FA0FE0FB685B8D9AB252
:10480000FB681A85FB681B8DDAB279890023009357
:104810004FF00073F86800F093FAFB685B8D9BB271
:10482000002B9DD17A69396AF86800F0E3F80346F5
:10483000002B01D001231AE0FB681B682022DA61FB
:10484000FB681B685968FB681A680C4B0B40536087
:10485000FB68202283F84120FB68002283F8422075
:10486000FB68002283F84020002300E00223184662
:104870001837BD4680BD00BF0024008000E800FE60
:1048800080B483B000AF78607B681B689B6903F0DD
:104890000203022B03D17B681B6800229A627B68AB
:1048A0001B689B6903F00103012B07D07B681B6821
:1048B0009A697B681B6842F001029A6100BF0C375D
:1048C000BD465DF8047B704780B584B000AFF860EA
:1048D000B9603B601346FB7131E03B68B3F1FF3FC9
:1048E0002DD0FEF7E1FD0246BB69D31A3A689A4221
:1048F00002D33B68002B22D1FB681B689A69BB6816
:104900001340BA689A420CBF01230023DBB21A4657
:10491000FB799A4213D1FB685B6C43F02002FB6881
:104920005A64FB68202283F84120FB68002283F848
:104930004220FB68002283F8402001230FE0FB683F
:104940001B689A69BB681340BA689A420CBF01237E
:104950000023DBB21A46FB799A42BED000231846E8
:104960001037BD4680BD80B584B000AFF860B96037
:104970007A6033E07A68B968F86800F001F90346B4
:10498000002B01D0012331E0BB68B3F1FF3F25D0FC
:10499000FEF78AFD02467B68D31ABA689A4202D3B0
:1049A000BB68002B1AD1FB681B689B6903F00203EC
:1049B000022B13D0FB685B6C43F02002FB685A6447
:1049C000FB68202283F84120FB68002283F8422004
:1049D000FB68002283F84020012307E0FB681B6886
:1049E0009B6903F00203022BC4D100231846103741
:1049F000BD4680BD80B584B000AFF860B9607A6014
:104A00002FE07A68B968F86800F0BAF80346002B1E
:104A100001D001232DE0FEF747FD02467B68D31A43
:104A2000BA689A4202D3BB68002B1AD1FB681B6894
:104A30009B6903F02003202B13D0FB685B6C43F0D1
:104A40002002FB685A64FB68202283F84120FB683F
:104A5000002283F84220FB68002283F840200123D3
:104A600007E0FB681B689B6903F02003202BC8D17B
:104A7000002318461037BD4680BD000080B584B0C5
:104A800000AFF860B9607A606BE07A68B968F8687E
:104A900000F076F80346002B01D0012369E0FB68A3
:104AA0001B689B6903F02003202B38D1FB681B682F
:104AB0009B6903F00403042B05D1FB681B8D002BBD
:104AC00001D0002355E0FB681B689B6903F01003CD
:104AD000102B07D1FB681B681022DA61FB680422E7
:104AE0005A6402E0FB6800225A64FB681B682022BB
:104AF000DA61FB681B685968FB681A681F4B0B403A
:104B00005360FB68202283F84120FB68002283F871
:104B10004220FB68002283F84020012329E0FEF7B1
:104B2000C3FC02467B68D31ABA689A4202D3BB68B8
:104B3000002B16D1FB681B689B6903F00403042B50
:104B40000FD0FB685B6C43F02002FB685A64FB6883
:104B5000202283F84120FB68002283F840200123B3
:104B600007E0FB681B689B6903F00403042B8CD1EE
:104B7000002318461037BD4680BD00BF00E800FE88
:104B800080B58AB000AFF860B9607A60002387F81A
:104B90002730FB681B689B69BB6100233B627B6815
:104BA000FB61BB6903F01003002B68D0FB681B6836
:104BB0001022DA6149E0BB68B3F1FF3F45D0FEF750
:104BC00073FC0246FB69D31ABA689A4202D3BB68E7
:104BD000002B3AD1FB681B685B6803F480437B6160
:104BE000FB6893F84230FB74FB681B689B6903F415
:104BF0000043B3F5004F21D17B69B3F5804F1DD041
:104C0000FB7C202B1AD0FB681B685A68FB681B686A
:104C100042F480425A60FEF747FCF8610EE0FEF76E
:104C200043FC0246FB69D31A192B07D93B6A43F0B0
:104C300020033B62012387F8273006E0FB681B68EE
:104C40009B6903F02003202BE9D1FB681B689B695B
:104C500003F02003202B03D097F82730002BAAD095
:104C600097F82730002B03D1FB681B682022DA61FC
:104C70003B6A43F004033B62012387F82730FB685B
:104C80001B689B69BB61BB6903F48073002B0BD06D
:104C90003B6A43F001033B62FB681B684FF4807280
:104CA000DA61012387F82730BB6903F48063002BA6
:104CB0000BD03B6A43F008033B62FB681B684FF470
:104CC0008062DA61012387F82730BB6903F400733F
:104CD000002B0BD03B6A43F002033B62FB681B686E
:104CE0004FF40072DA61012387F8273097F82730F4
:104CF000002B1CD0F868FFF7C3FDFB681B685968E0
:104D0000FB681A680D4B0B405360FB685A6C3B6A9A
:104D10001A43FB685A64FB68202283F84120FB6831
:104D2000002283F84220FB68002283F8402097F895
:104D3000273018462837BD4680BD00BF00E800FE7A
:104D400080B487B000AFF8607B600B467B81134670
:104D50007B727B89C3F309027B7A1B0403F47F0314
:104D60001A437B681A433B6A134323F000437B6179
:104D7000FB681B685A683B6A5B0D03F48061084B53
:104D80000B43DB4302EA0301FB681B687A690A43B1
:104D90005A6000BF1C37BD465DF8047B704700BFFA
:104DA000FF63FF0380B483B000AF786039607B6835
:104DB00093F84130DBB2202B38D17B6893F8403038
:104DC000012B01D1022332E07B68012283F84020CD
:104DD0007B68242283F841207B681B681A687B6803
:104DE0001B6822F001021A607B681B681A687B68E6
:104DF0001B6822F480521A607B681B6819687B6804
:104E00001B683A680A431A607B681B681A687B68EB
:104E10001B6842F001021A607B68202283F841205F
:104E20007B68002283F84020002300E0022318461C
:104E30000C37BD465DF8047B704780B485B000AF89
:104E4000786039607B6893F84130DBB2202B39D130
:104E50007B6893F84030012B01D1022333E07B685B
:104E6000012283F840207B68242283F841207B685C
:104E70001B681A687B681B6822F001021A607B6855
:104E80001B681B68FB60FB6823F47063FB603B6876
:104E90001B02FA681343FB607B681B68FA681A60A0
:104EA0007B681B681A687B681B6842F001021A6005
:104EB0007B68202283F841207B68002283F8402011
:104EC000002300E0022318461437BD465DF8047B3A
:104ED0007047000080B5ADF5007D00AF07F50073A9
:104EE000A3F5FE73186007F50073A3F5FE731B6846
:104EF000002B02D1012301F023B807F50073A3F5BD
:104F0000FE731B681B6803F00103002B00F07D811A
:104F1000BC4B5B6803F00C03042B0CD0B94B5B68F3
:104F200003F00C03082B5CD1B64B5B6803F48033B1
:104F3000B3F5803F55D14FF40033C7F8F031D7F8BF
:104F4000F03193FAA3F3C7F8EC31D7F8EC31B3FAA8
:104F500083F3DBB25B09DBB243F00103DBB2012B6D
:104F600002D1A84B1B6815E04FF40033C7F8E831B5
:104F7000D7F8E83193FAA3F3C7F8E4314FF40033DC
:104F8000C7F8E031D7F8E03193FAA3F3C7F8DC3182
:104F90009C4B5B6A4FF40032C7F8D821D7F8D82170
:104FA00092FAA2F2C7F8D421D7F8D421B2FA82F249
:104FB000D2B242F02002D2B202F01F02012101FA65
:104FC00002F21340002B00F01F8107F50073A3F5D8
:104FD000FE731B685B68002B40F01681012300F014
:104FE000AFBF07F50073A3F5FE731B685B68B3F5ED
:104FF000803F06D1834B1B68824A43F480331360A1
:1050000036E007F50073A3F5FE731B685B68002BA1
:105010000CD17C4B1B687B4A23F480331360794BA3
:105020001B68784A23F48023136021E007F500739E
:10503000A3F5FE731B685B68B3F5A02F0CD1714B11
:105040001B68704A43F4802313606E4B1B686D4AE3
:1050500043F4803313600BE06A4B1B68694A23F406
:1050600080331360674B1B68664A23F48023136008
:10507000644BDB6A23F00F0207F50073A3F5FE73A0
:105080001B689B685F491343CB6207F50073A3F568
:10509000FE731B685B68002B59D0FEF705FAC7F852
:1050A000F8010AE0FEF700FA0246D7F8F831D31A01
:1050B000642B02D9032300F043BF4FF40033C7F839
:1050C000D031D7F8D03193FAA3F3C7F8CC31D7F861
:1050D000CC31B3FA83F3DBB25B09DBB243F00103FB
:1050E000DBB2012B02D1474B1B6815E04FF40033B4
:1050F000C7F8C831D7F8C83193FAA3F3C7F8C43159
:105100004FF40033C7F8C031D7F8C03193FAA3F396
:10511000C7F8BC313B4B5B6A4FF40032C7F8B8218B
:10512000D7F8B82192FAA2F2C7F8B421D7F8B4217F
:10513000B2FA82F2D2B242F02002D2B202F01F02E0
:10514000012101FA02F21340002BABD05DE0FEF723
:10515000ABF9C7F8F8010AE0FEF7A6F90246D7F85E
:10516000F831D31A642B02D9032300F0E9BE4FF4BF
:105170000033C7F8B031D7F8B03193FAA3F3C7F8CA
:10518000AC31D7F8AC31B3FA83F3DBB25B09DBB2F5
:1051900043F00103DBB2012B02D11A4B1B6815E06F
:1051A0004FF40033C7F8A831D7F8A83193FAA3F326
:1051B000C7F8A4314FF40033C7F8A031D7F8A031B5
:1051C00093FAA3F3C7F89C310E4B5B6A4FF400329D
:1051D000C7F89821D7F8982192FAA2F2C7F894213B
:1051E000D7F89421B2FA82F2D2B242F02002D2B2BF
:1051F00002F01F02012101FA02F21340002BABD191
:1052000003E000BF0010024000BF07F50073A3F5E4
:10521000FE731B681B6803F00203002B00F07D8106
:10522000A64B5B6803F00C03002B0BD0A34B5B6811
:1052300003F00C03082B72D1A04B5B6803F480339E
:10524000002B6CD10223C7F89031D7F8903193FA34
:10525000A3F3C7F88C31D7F88C31B3FA83F3DBB200
:105260005B09DBB243F00103DBB2012B02D1934BAC
:105270001B6813E00223C7F88831D7F8883193FA06
:10528000A3F3C7F884310223C7F88031D7F88031FF
:1052900093FAA3F3C7F87C31884B5B6A0222C7F804
:1052A0007821D7F8782192FAA2F2C7F87421D7F8BA
:1052B0007421B2FA82F2D2B242F02002D2B202F0EB
:1052C0001F02012101FA02F21340002B0AD007F558
:1052D0000073A3F5FE731B681B69012B02D0012329
:1052E00000F02EBE754B1B6823F0F80207F5007323
:1052F000A3F5FE731B685B69F821C7F87011D7F836
:10530000701191FAA1F1C7F86C11D7F86C11B1FACC
:1053100081F1C9B28B40694913430B60FDE007F589
:105320000073A3F5FE731B681B69002B00F08880D7
:105330000123C7F86831D7F8683193FAA3F3C7F8A7
:105340006431D7F86431B3FA83F3DBB203F18453E9
:1053500003F584139B001A4601231360FEF7A4F89B
:10536000C7F8F8010AE0FEF79FF80246D7F8F831CF
:10537000D31A022B02D9032300F0E2BD0223C7F89F
:105380006031D7F8603193FAA3F3C7F85C31D7F8EE
:105390005C31B3FA83F3DBB25B09DBB243F00103A8
:1053A000DBB2012B02D1454B1B6813E00223C7F887
:1053B0005831D7F8583193FAA3F3C7F85431022380
:1053C000C7F85031D7F8503193FAA3F3C7F84C31EE
:1053D0003A4B5B6A0222C7F84821D7F8482192FA73
:1053E000A2F2C7F84421D7F84421B2FA82F2D2B22D
:1053F00042F02002D2B202F01F02012101FA02F2B1
:105400001340002BAFD02D4B1B6823F0F80207F59B
:105410000073A3F5FE731B685B69F821C7F84011A0
:10542000D7F8401191FAA1F1C7F83C11D7F83C1117
:10543000B1FA81F1C9B28B40204913430B606CE093
:105440000123C7F83831D7F8383193FAA3F3C7F8F6
:105450003431D7F83431B3FA83F3DBB203F1845338
:1054600003F584139B001A4600231360FEF71CF813
:10547000C7F8F8010AE0FEF717F80246D7F8F83146
:10548000D31A022B02D9032300F05ABD0223C7F816
:105490003031D7F8303193FAA3F3C7F82C31D7F86D
:1054A0002C31B3FA83F3DBB25B09DBB243F00103C7
:1054B000DBB2012B04D1014B1B6815E00010024048
:1054C0000223C7F82831D7F8283193FAA3F3C7F895
:1054D00024310223C7F82031D7F8203193FAA3F3FF
:1054E000C7F81C31C84B5B6A0222C7F81821D7F8ED
:1054F000182192FAA2F2C7F81421D7F81421B2FAAF
:1055000082F2D2B242F02002D2B202F01F02012196
:1055100001FA02F21340002BADD107F50073A3F599
:10552000FE731B681B6803F00803002B00F010815A
:1055300007F50073A3F5FE731B689B69002B79D0F8
:105540000123C7F81031D7F8103193FAA3F3C7F845
:105550000C31D7F80C31B3FA83F3DBB21A46AB4BFC
:1055600013449B001A4601231360FDF79DFFC7F803
:10557000F8010AE0FDF798FF0246D7F8F831D31A90
:10558000022B02D9032300F0DBBC0223C7F8083149
:10559000D7F8083193FAA3F3C7F8043107F500737D
:1055A000A3F5807302221A6007F50073A3F58073D8
:1055B0001B6893FAA3F207F50073A3F582731A60D0
:1055C00007F50073A3F5847302221A6007F50073D0
:1055D000A3F584731B6893FAA3F207F50073A3F590
:1055E00086731A60884B5A6A07F50073A3F58873AF
:1055F0000221196007F50073A3F588731B6893FAFD
:10560000A3F107F50073A3F58A73196007F500731A
:10561000A3F58A731B68B3FA83F3DBB243F060032C
:10562000DBB203F01F03012101FA03F31340002B47
:10563000A0D08DE007F50073A3F58C7301221A60EA
:1056400007F50073A3F58C731B6893FAA3F207F5B3
:105650000073A3F58E731A6007F50073A3F58E73BC
:105660001B68B3FA83F3DBB21A46684B13449B0002
:105670001A4600231360FDF717FFC7F8F8010AE088
:10568000FDF712FF0246D7F8F831D31A022B02D9E0
:10569000032300F055BC07F50073A3F590730222B5
:1056A0001A6007F50073A3F590731B6893FAA3F2D1
:1056B00007F50073A3F592731A6007F50073A3F55D
:1056C000947302221A6007F50073A3F594731B68A4
:1056D00093FAA3F207F50073A3F596731A6007F522
:1056E0000073A3F5987302221A6007F50073A3F5FF
:1056F00098731B6893FAA3F207F50073A3F59A73E6
:105700001A60414B5A6A07F50073A3F59C73022196
:10571000196007F50073A3F59C731B6893FAA3F156
:1057200007F50073A3F59E73196007F50073A3F5E1
:105730009E731B68B3FA83F3DBB243F06003DBB202
:1057400003F01F03012101FA03F31340002B97D14B
:1057500007F50073A3F5FE731B681B6803F00403D1
:10576000002B00F0A181002387F8FF31264BDB6975
:1057700003F08053002B16D1234BDB69224A43F000
:105780008053D361204BDB6903F0805207F500732F
:10579000A3F5FC731A6007F50073A3F5FC731B688F
:1057A000012387F8FF311A4B1B6803F48073002B29
:1057B0001AD1174B1B68164A43F480731360FDF728
:1057C00073FEC7F8F80109E0FDF76EFE0246D7F850
:1057D000F831D31A642B01D90323B1E30C4B1B68B6
:1057E00003F48073002BEFD007F50073A3F5FE736D
:1057F0001B68DB68012B0DD1034B1B6A024A43F087
:10580000010313623CE000BF0010024020819010B1
:105810000070004007F50073A3F5FE731B68DB689A
:10582000002B0CD1C14B1B6AC04A23F00103136249
:10583000BE4B1B6ABD4A23F00403136220E007F548
:105840000073A3F5FE731B68DB68052B0CD1B74B07
:105850001B6AB64A43F004031362B44B1B6AB34A93
:1058600043F0010313620BE0B04B1B6AAF4A23F015
:1058700001031362AD4B1B6AAC4A23F004031362AD
:1058800007F50073A3F5FE731B68DB68002B00F0BF
:105890008180FDF709FEC7F8F8010BE0FDF704FE73
:1058A0000246D7F8F831D31A41F28832934201D92F
:1058B000032345E307F50073A3F5A07302221A60E2
:1058C00007F50073A3F5A0731B6893FAA3F207F51D
:1058D0000073A3F5A2731A6007F50073A3F5A47310
:1058E00002221A6007F50073A3F5A4731B6893FAEC
:1058F000A3F207F50073A3F5A6731A6007F500730A
:10590000A3F5A6731B68B3FA83F3DBB25B09DBB2C2
:1059100043F00203DBB2022B02D1844B1B6A13E07B
:1059200007F50073A3F5A87302221A6007F5007348
:10593000A3F5A8731B6893FAA3F207F50073A3F508
:10594000AA731A60794B5B6A07F50072A2F5AC7214
:105950000221116007F50072A2F5AC72126892FA8A
:10596000A2F107F50072A2F5AE72116007F50072A0
:10597000A2F5AE721268B2FA82F2D2B242F04002DE
:10598000D2B202F01F02012101FA02F21340002BF1
:1059900084D07FE0FDF788FDC7F8F8010BE0FDF744
:1059A00083FD0246D7F8F831D31A41F28832934288
:1059B00001D90323C4E207F50073A3F5B0730222F3
:1059C0001A6007F50073A3F5B0731B6893FAA3F28E
:1059D00007F50073A3F5B2731A6007F50073A3F51A
:1059E000B47302221A6007F50073A3F5B4731B6841
:1059F00093FAA3F207F50073A3F5B6731A6007F5DF
:105A00000073A3F5B6731B68B3FA83F3DBB25B09CB
:105A1000DBB243F00203DBB2022B02D1434B1B6A21
:105A200013E007F50073A3F5B87302221A6007F5B7
:105A30000073A3F5B8731B6893FAA3F207F500731C
:105A4000A3F5BA731A60394B5B6A07F50072A2F5C9
:105A5000BC720221116007F50072A2F5BC721268D7
:105A600092FAA2F107F50072A2F5BE72116007F575
:105A70000072A2F5BE721268B2FA82F2D2B242F09D
:105A80004002D2B202F01F02012101FA02F21340D9
:105A9000002B84D197F8FF31012B05D1234BDB6913
:105AA000224A23F08053D36107F50073A3F5FE73F8
:105AB0001B68DB69002B00F042821C4B5B6803F023
:105AC0000C03082B00F0138207F50073A3F5FE7397
:105AD0001B68DB69022B40F0628107F50073A3F5B8
